:020000040800F2
:10000000D80F0020C5000008793000081B2B00081D
:1000100000000000000000000000000000000000E0
:10002000000000000000000000000000E3300008B5
:1000300000000000000000007B300008E5300008F0
:10004000D700000800000000D7000008D700000813
:10005000D7000008D7000008D7000008D700000824
:1000600000000000D7000008D7000008D7000008F3
:10007000D7000008D7000008D700000800000000E3
:10008000D7000008000000000000000061310008F7
:1000900000000000D7000008D7000008D7000008C3
:1000A00000000000D700000800000000D700000892
:1000B0000348854600F0BAFC00480047DD540008BC
:1000C000D80F00200448804704480047FEE7FEE7B9
:1000D000FEE7FEE7FEE7FEE75D310008B10000083D
:1000E00030B50B46014600202022012409E00D46D0
:1000F000D5409D4205D31D469540491B2546954058
:1001000040191546521E002DF1DC30BD70B500249B
:100110002546002801DA01244042002901DA0125A0
:100120004942FFF7DDFFAC4200D04042002C00D036
:10013000494270BDF0B51FB40646002082B00546A6
:100140004024019100901BE0019922460F46304661
:1001500000F020F8049A059B801A994110D31046AC
:100160001946224600F0F2FA361A8F4101972246CC
:1001700001200021009F00F0E9FA38184D4100905D
:100180002046641E0028DFDC019B00982946324689
:1001900007B0F0BD10B5202A04DB0846203AD04055
:1001A000002110BD0B46D340D0402024A21A91401C
:1001B0000843194610BD00000549064A0868504327
:1001C000054A801808604008704701490860704778
:1001D000D00000206D4EC6413930000003460B436D
:1001E0009B0703D009E008C9121F08C0042AFAD2ED
:1001F00003E00B780370401C491C521EF9D2704773
:10020000D2B201E00270401C491EFBD270470022AE
:10021000F6E710B513460A4604461946FFF7F0FF05
:10022000204610BDF8B502464A40D40F42004B00AC
:1002300052085B089A4202D20246084611464A001A
:1002400023D0C30D4A00DDB2120EAD1A202D35DACF
:1002500049020126490AF6058A19002C00D05242AB
:1002600020214F1B1146B9402A411018C20D9A4255
:1002700021D0002C17D0012D08DCDA05801AD20F0E
:100280008019D207DBB200F08CFAF8BDDA05801ACB
:10029000012340001B06C01880185A428018CA0F5C
:1002A0001043490007E04908C2071143DA05801AE4
:1002B00080194008801800F06CFAF8BD6100012236
:1002C000511A001BF7E70122D2075140AAE7012289
:1002D000D2075040A6E7024670B54A40D30FDB076D
:1002E00040002DD04A002AD0010E140E0002120246
:1002F0000919400A520A8418E50104465443000AC9
:10030000120A2E045043A4194219200CC543AA18FE
:10031000120C0125AD03521C521912047F3924041A
:1003200000D0521C104301D44000491EC2B20C063A
:10033000C0092018401C4008802A02D003E0002099
:1003400070BD40084000002900DA0020184370BD4D
:1003500070B502464A40D50F40004A00ED074008FC
:100360005208002814D0002A12D0C40DD30D410227
:100370000120C0055202490A520AE41A091812184B
:100380007D34914201D3641C00E04900002C01DA65
:10039000002070BD0023914201D3891A0343400815
:1003A00049000028F7D100290AD0914202D1012149
:1003B000C90705E0914201D2012101E00121C943B1
:1003C000E005C018401900F0E4F970BD420005D006
:1003D0004200120E52428A4201DB00207047C905DA
:1003E00008187047F0B507460846584087B0C00F58
:1003F000049048000E46590040084908BC1A88413C
:1004000005D2384631461E4617460B46024658006E
:10041000400810434CD0300D039040055900400D6A
:10042000490D0590401A0290402872DA1803012104
:10043000000B09050843019004980092002805D09C
:100440000199524200208841009201900298402177
:100450000A1A0199009800F079F905460C466B4696
:1004600007CB00F083F9C0197141039A0E0D0023E8
:10047000D71756401A467A40164344D0049A002AA9
:100480002DD0029A012A039A15DC1205C01A914157
:1004900001263605001C7141D20F059ED20700933C
:1004A000019202962A46234600F0C1F907B0F0BD3A
:1004B00038463146FAE71605224A0F46B218C01AE6
:1004C000B74101210905001C4F4100187F41114629
:1004D00018187941E20F10436D19644113E0E207E7
:1004E0006D0815436408C2071443039A01261205D8
:1004F000C01A91413605001C7141CE0740083043B7
:100500004908C01851412A46234600F083F9CDE737
:10051000FFE7049801224000C117121A00238B4103
:1005200004983146C417381AA141EEE730B40124CB
:10053000E407634030BC55E730B40124E407614070
:1005400030BC4FE70000E0FFF0B51FB488B00B9956
:100550000998002448400999C00F490049080991A9
:10056000C0070B990090490049080B910999089818
:10057000A64608431CD00B990A98084318D009983E
:1005800001244000420D4800410D09982405000354
:10059000000B204309900B980003000B20430B90A5
:1005A00050181C494018002201901446104605E0DE
:1005B000002001460DB0F0BD032801DA034600E03B
:1005C00003239C46C11A0AAE0AE05F0008ADED5B4A
:1005D0004F00F75B7D430027AA187C41491C5B1E36
:1005E0006145F2DD410004AB5A522104120C0A436A
:1005F000240C401C0828DFDB01980290009970460B
:1006000001910090059B049A0799069800F00FF954
:10061000D0E700000DFCFFFF70B54B005B08034303
:100620000BD04B005C0D002633466542B341D41716
:10063000AD1AA34102DB0020014670BD120530183F
:10064000514170BDC217C10F504010B54018CA07C4
:100650009623002100F0A5F810BD10B500229623C6
:10066000114600F09EF810BDC20F41004002012368
:10067000400ADB05D207090EC0187F2901DA0020E5
:100680007047962903DC9623591AC84001E0963931
:100690008840002AF4D040427047410040020122C5
:1006A000400AD205090E80187F2901DA0020704720
:1006B000962903DC9622511AC84070479639884023
:1006C0007047C20FD207400040080BD0C10D07236E
:1006D000DB01C91840020905400A1143C20840075E
:1006E00011437047002001467047CB0FDB074900DC
:1006F00010B5490802460A4307D00A0D072409032A
:10070000E401090B121B002A01DC002010BDC90006
:10071000440F0C43C100E018D205801800F039F8EE
:1007200010BD00000122D207002800DB101A0029AA
:1007300000DB511A814270470122D207002800DBFA
:10074000101A002900DB511A8842704710B5202A80
:1007500004DB0146203A9140002010BD9140202347
:100760009C1A0346E3401943904010BD10B5202A5F
:1007700006DBCB170846203A1041C1170B4306E0B1
:100780000B461341D0402024A21A91400843194639
:1007900010BD002904DA401C490001D14008400086
:1007A000704770B40024050C05D11024000402D158
:1007B000002921D01124050E01D100020834050FB3
:1007C00001D10001241D850F01D18000A41C002847
:1007D00001DB4000641C002908D020252E1B0D469B
:1007E000F540A14000D001212943084301061B1B0D
:1007F000000ADB1D02D5002070BC7047DB0518180D
:1008000080180029F8DA401C4900F5D170BC400876
:100810004000704710B5002B08DA0024401C6141ED
:1008200092185B411A4301D14008400010BDF0B559
:100830001FB482B005460C0003D0084602F02AFE21
:1008400002E002F027FE20300246009021462846B2
:10085000FFF77CFF049B059A04460F46184311439B
:10086000084314D0184610431BD0009840210A1AA0
:1008700018460599FFF78EFC05460E46009A059925
:100880000498FFF763FF084305D0012004E02046E9
:10089000394607B0F0BD0020C11705430E432C4375
:1008A000374300990E986305401A7905E40A00223F
:1008B0000C43FD0A0A3002D500200146E9E7010594
:1008C000101969410C9C0D9D00196941FFF7A2FFA9
:1008D000DFE70000F0B50C465C4085B0E40FE407AC
:1008E00003944C00002664085900944649080246C7
:1008F0000296224321D062460A431ED06200570D61
:100900004A000E032303550D012402462C492405F9
:10091000781B1B0B360B401823432643614600907F
:100920001C46501AB44103D30098401C009002E0CA
:10093000921800985B41002803DA0020014605B0B8
:10094000F0BD0020012109050746864611E06446F6
:100950001D46141BB54106D36546521BB341744670
:1009600007430C43A646CD07400849082843921880
:100970005B4105460D43EAD11046184313D060464B
:10098000194650407140084306D06046101AB341E2
:1009900006D20122002306E000220123DB0702E049
:1009A0000122D2435310009874460105381C61415E
:1009B000029C039D00196941FFF72CFFBFE700006F
:1009C000FD0300004A0009030123090B1B0519431D
:1009D0000A4B10B5520D9A4202DA0020014610BDB2
:1009E000064B34339A4203DC9A1AFFF7D3FB10BD4F
:1009F000034BD218FFF7AAFE10BD0000FF03000052
:100A0000CDFBFFFF10B5002904DB0124E4074042C1
:100A10008C412146002B04DB1C460123DB0752429C
:100A2000A341994200D1904210BD0000064C01251F
:100A3000064E05E0E36807CC2B430C3C9847103486
:100A4000B442F7D3FFF738FBB07D0008D07D000833
:100A5000F8B5044600200090206881688907890F56
:100A6000012905D10168C9073DD1C16809043AD4FB
:100A700081681E4A102611400125002907D0A06B6D
:100A80003043A063E06B2843E0630120F8BD816838
:100A900029438160174816490068FFF721FB009041
:100AA0000098002805D00098401E0090009800286B
:100AB000F9D100F00DFC074620680068C043C0076C
:100AC00011D000F005FCC01B022807D9A06B3043F1
:100AD000A063E06B2843E0630120F8BD2068006854
:100AE000C043C007EDD10020F8BD00001700008012
:100AF00040420F008800002070470000F3B581B02D
:100B0000054602984000010E45480FD16900090EC4
:100B100006D001224349D205954203DB0846FEBDBB
:100B20000020FEBD854201D33F48FEBD0026029F46
:100B30002C46854202D30121C9074C40FF20C00545
:100B4000C74201D30002474039462046FFF7F4FD73
:100B500003D2384627460446022639462046FFF788
:100B6000F7FB32490446884214DD3149FFF7B3FBF5
:100B70007F21C905FFF7A7FB2146FFF753FB074677
:100B80002C492046FFF74EFB01463846FFF7E0FBB5
:100B90000446761CFF21C905C84201D3090248401A
:100BA0002549884201DA204622E021460846FFF71F
:100BB00092FB22490090FFF78EFB2149FFF732FBA1
:100BC0000099FFF788FB07461E490098FFF72AFBAC
:100BD0000099FFF780FB1C49FFF724FB01463846CC
:100BE000FFF7B6FB2146FFF776FB2146FFF71AFB1E
:100BF000012E02DD0121C9074840144AB1005158B5
:100C0000FFF710FB064C0299A14203D3014610489E
:100C1000FFF759FBA54288D30121C9074840FEBD13
:100C200000008080DB0FC93FDB0FC9BFA330893EC6
:100C3000AF673B3FD7B3DD3FF304B539AE5338BFA1
:100C4000A854B8BF3C1298407E3F8A40847D00087B
:100C5000DB0F494070B51C49FFF73DFB7D21C905FD
:100C6000FFF7E0FA0446FFF7FFFCFF21C905CC427D
:100C700000D3401EFFF7E6FC2146FFF728FB0921C1
:100C8000FFF7A4FB0446FFF708FDC505ED0D284658
:100C9000FFF7E3FC2146FFF71AFB04460B48A900C7
:100CA0004658081841682046FFF715FB05467F2087
:100CB0002146C005FFF707FB3146FFF70CFB29462D
:100CC000FFF7B0FA70BD000083F9223E14750008EA
:100CD00070B504461949FFF7FEFA0546FFF7C4FC54
:100CE000FF21C905CC4200D3401EFFF7ABFC2946CB
:100CF000FFF7EDFA0921FFF769FB0446FFF7CDFC8A
:100D0000C505ED0D2846FFF7A8FC2146FFF7DFFAE1
:100D100004460B48A9004658081841682046FFF7CA
:100D2000DAFA05467F202146C005FFF7CCFA3146A6
:100D3000FFF7D1FA2946FFF775FA70BD83F9223E15
:100D400014750008F8B500250022009204462034EE
:100D5000227D012A39D001262675026893685B0737
:100D60006CD43B4F4B68BB4252D0936A0F78BE4065
:100D7000334393620123C26A1B079A421FD0012AA0
:100D80001DD0022A1BD0032A19D0042A17D0052A05
:100D900015D0062A13D0072A11D002688B6856692D
:100DA0007607760FB3420AD05369DB08DB00536144
:100DB000006842690B7A5B075B0F1A43426108685F
:100DC000102804D0112802D03DE00220F8BD214BAC
:100DD0009A68102807D00120800502439A600868AD
:100DE000102803D02FE00120C005F6E71B481A4960
:100DF0000068FFF775F90A21484300900098002821
:100E000021D00098401E009000980028F9D11AE0E7
:100E1000906A0B789E40B04390620868102801D019
:100E2000112810D10B498A68102804D001208005B0
:100E300082438A6007E00120C005F9E7816B202228
:100E4000114381630125002020752846F8BD00006C
:100E5000011000000027014040420F0088000020E0
:100E60000068006C70470000F8B504460025002CAF
:100E700005D0A06B26462036002802D007E00120CE
:100E8000F8BD0020E0633075204600F0A9F8A06BA3
:100E90001022104270D12068816849076CD4A16B80
:100EA0001301994302231943A16381688907890FBC
:100EB000012905D10168C9070FD1C16809040CD403
:100EC000C16818239943A3681943C1602068016968
:100ED000636889008908194301612068C1683E4B35
:100EE0001940C160207E8103607EC0030143A07E63
:100EF00043031943A36A012B02D001231B0300E023
:100F000000231943E36819432369022B09D0002306
:100F1000194333795B001943E67E0123012E02D089
:100F20000AE00423F4E7002827D0A06B20263043F2
:100F3000A063E06B1843E063E0690646FF3EC23EF3
:100F400002D0266A304301432068C6680E43C6605B
:100F50000126E06A3607B04213D0012811D00228DA
:100F60000FD003280DD004280BD0052809D006285F
:100F700007D0072805D010E027E001200004014336
:100F8000DAE720684669F608F60046612068466997
:100F9000A78D7F077F0F3E4346612068C0680F4ED4
:100FA0003040884207D10020E063A06B80088000B9
:100FB000401CA0630DE0A06B022188431043A06396
:100FC000E06B1843E063012503E0A06B1043A063CE
:100FD00001252846F8BD00001902FEFFE7FF3F8308
:100FE00010B586B0044614216846FFF710F9104981
:100FF0002068884219D10F48826941150A438261ED
:1010000082690A400592426909020A4342614069C5
:1010100008400590202000900320019000200290BD
:1010200009206946C00600F0ABF806B010BD00000C
:101030000024014000100240F8B504460D46274642
:101040006069203708280BD02068C068C00709D025
:10105000A06B20210843A063002038750120F8BD53
:10106000082600E00C2600F033F9009020680068A4
:10107000304215D1681C0FD0002D05D000F028F9A2
:101080000099401AA84207D9A06B04210843A06325
:10109000002038750320F8BD206800683042E9D090
:1010A000A06B012149020843A0632068C1680905BB
:1010B0008A0F0C21002A1AD1A27E002A17D10268B9
:1010C000120714D5826801235207002A08DB426800
:1010D0008A434260A06B1A0290431843A06306E063
:1010E000A06B20221043A063E06B1843E063207ED6
:1010F000002801D1206801600020F8BD70B50446C9
:10110000002021688968490723D425462035297D98
:1011100001291CD001212975617E012902D02046B8
:10112000FFF796FC002811D1A16B0B4A1140FF225A
:1011300001321143A1630021E163297522681C215A
:10114000116021688A6804231A438A6070BD0220F6
:1011500070BD022070BD0000FEF1FFFF70B50446B7
:1011600000F0B6F80546601C02D004480078241848
:1011700000F0AEF8401BA042FAD370BDC4000020BE
:10118000F8B400220B68002B7ED0012494400B6839
:10119000A4462340002B78D04C68022C01D0122C9E
:1011A0000CD1D408A40025182C6A5607F60E0F2778
:1011B000B740BC430F69B74027432F62076855000B
:1011C0000324AC40A7430E79B607B60FAE403E43AA
:1011D00006604E68012E05D0022E03D0112E01D0DC
:1011E000122E0ED18768A743CE68AE403E4386607C
:1011F00047686646B7430E79F606F60F96403E43BB
:101200004660C668A6438C68AC403443C4604C68F2
:10121000E4004AD5284CA56901263543A561A46997
:10122000344000949508254CAD002F19BD689407F3
:10123000240F0F26A640B5430926F606B04201D179
:1012400000260FE01E4EB04201D101260AE01D4EDD
:10125000B04201D1022605E01B4EB04201D1032667
:1012600000E00526A6402E43BE60184D2C689C4326
:101270004E68F60300D51C432C606C689C434E6896
:10128000B60300D51C4301E014E00EE06C60AC68CE
:101290009C434E68F60200D51C43AC60EC689C434E
:1012A0004E68B60200D51C43EC60521C0B68D3405C
:1012B00000D06AE7F8BC704700100240000001400F
:1012C0000004004800080048000C004800040140E9
:1012D0000148806870470000C400002070B40246D6
:1012E00040325378202B02D070BC02207047137814
:1012F000012B1AD0012414702423537003681D6835
:10130000A5431D6003681D682603B5431D6003687F
:101310001D680D431D6000680168214301602020A5
:1013200050700020107070BC704770BC0220704775
:1013300070B4024640325378202B02D070BC022099
:1013400070471378012B19D0012515702423537091
:1013500003681C68AC431C6003681C680F263602D7
:10136000B443090221431960006801682943016000
:10137000202050700020107070BC704770BC02209C
:101380007047000070B50446002C06D02546403555
:1013900068780026002802D005E0012070BD2E707C
:1013A000204600F07DFA2420687020680168490812
:1013B000490001600F2160680906884321680861BF
:1013C000206882680121C9038A438260E06801289D
:1013D00009D02122A0689202104322689060E06840
:1013E000022805D008E0A068226808439060F6E76C
:1013F00001202268C0025060206842680F4B1A43E7
:1014000042602068C2688A43C260616920690843FB
:10141000A169090208432168C860216AE06908439C
:101420002168086020680168012211430160666438
:10143000202068702663AE70002070BD008000021E
:10144000FFB581B00446254640356878202802D093
:10145000022005B0F0BD2878012810D001202870A6
:10146000FFF736FF064601221923D10320460096D6
:1014700001F032FC002805D0012005B0F0BD0220AB
:1014800005B0F0BD212068701020A87000276764A7
:1014900003986062049860856763618D3A48FF290C
:1014A00008D9FF222285C30200902046029901F04C
:1014B000FFFB0AE0618D21850090208D0123C2B2DF
:1014C0005B062046029901F0F3FB608D002843D0B3
:1014D000324620460A9901F05AFC002802D0012029
:1014E00005B0F0BD606A216800788862606A401CBF
:1014F0006062608D401E6085208D401E80B2208518
:10150000618D002925D0002823D10096002280215A
:1015100020460A9B01F0E0FB002802D0012005B024
:10152000F0BD608DFF2809D9FF22228501231B060B
:1015300000972046029901F0BBFB0AE0608D2085F0
:101540000097208D0123C2B25B062046029901F06C
:10155000AFFB608D0028BBD1324620460A9901F0CE
:10156000EBFB002802D0012005B0F0BD206820214F
:10157000C16120684268054B1A4042606970AF70D3
:101580002F70002005B0F0BD0020008000E800FEB4
:10159000FFB583B00C9F0446254640356878202867
:1015A00002D0022007B0F0BD002F16D00D98002801
:1015B00013D02878012816D001202870FFF788FE64
:1015C000064601221923D1032046009601F084FB30
:1015D00000280BD0012007B0F0BD0120400260645C
:1015E000012007B0F0BD022007B0F0BD22206870D6
:1015F0004020A8700020606467620D996185606377
:101600000E98009001962046069B059A049901F0D9
:10161000DBFA002804D000202870012007B0F0BDBC
:10162000618D3C48FF27FF2909D93A4627850123C8
:1016300000901B062046049901F03AFB0AE0618DF8
:1016400021850090208D0123C2B25B0620460499BB
:1016500001F02EFB002700960022042120460E9B5D
:1016600001F03AFB002802D0012007B0F0BD20684D
:10167000406A616A0870606A401C6062208D401E8A
:1016800080B22085618D491E6185618D002925D03C
:10169000002823D100960022802120460E9B01F0D5
:1016A0001BFB002802D0012007B0F0BD608DFF2891
:1016B00009D9FF22228501231B06009720460499A1
:1016C00001F0F6FA0AE0608D20850097208D012355
:1016D000C2B25B062046049901F0EAFA608D002848
:1016E000B9D1324620460E9901F026FB002802D0DF
:1016F000012007B0F0BD20682021C1612068426848
:10170000054B1A4042606970AF702F70002007B01F
:10171000F0BD00000024008000E800FEFFB583B0AB
:101720000C9F0446254640356878202802D00220C8
:1017300007B0F0BD002F16D00D98002813D02878E0
:10174000012816D001202870FFF7C2FD06460122AD
:101750001923D1032046009601F0BEFA00280BD0D1
:10176000012007B0F0BD012040026064012007B0F5
:10177000F0BD022007B0F0BD212068704020A870A5
:101780000020606467620D99618560630E98009027
:1017900001962046069B059A049901F04FFA00280D
:1017A00004D000202870012007B0F0BD608DFF2715
:1017B000FF280AD93A4627850020012300901B06FE
:1017C0002046049901F074FA0BE0608D208500201A
:1017D0000090208D0123C2B25B062046049901F0DF
:1017E00067FA0027324620460E9901F0D0FA002809
:1017F00002D0012007B0F0BD606A216800788862DD
:10180000606A401C6062608D401E6085208D401EB5
:1018100080B22085618D002925D0002823D1009633
:101820000022802120460E9B01F056FA002802D0AB
:10183000012007B0F0BD608DFF2809D9FF22228565
:1018400001231B0600972046049901F031FA0AE0B3
:10185000608D20850097208D0123C2B25B06204653
:10186000049901F025FA608D0028BBD1324620464C
:101870000E9901F061FA002802D0012007B0F0BDF6
:1018800020682021C16120684268044B1A404260F0
:101890006970AF702F70002007B0F0BD00E800FE47
:1018A00010B586B0044614216846FEF7B0FC124914
:1018B000206888421DD1114C6169012080040143D8
:1018C0006161616901400591C020009012200121F1
:1018D0000190032002910491039069460848FFF7A4
:1018E0004FFCE169012040050143E161E1690140EC
:1018F000059106B010BD00000054004000100240E9
:1019000000040048024881680278891881607047A5
:10191000C400002010B50648016810221143016080
:10192000002000F007F800F029F8002010BD0000AA
:101930000020024070B504460E4D7D202978C0007D
:10194000FEF7CEFB01460C480068FEF7C9FB00F02D
:10195000BDFD002801D0012070BD042C07D200225B
:101960002146501E00F02AF86C60002070BD012056
:1019700070BD0000C40000208800002008B50848A1
:101980008169012211438161816911400091C2691D
:1019900001040A43C261C0690840009008BD00000C
:1019A00000100240002805DBC106C90E0120884056
:1019B000014908607047000000E100E08207D30E93
:1019C000FF229A408907090E9940002808DB830806
:1019D00009489B001818036893430B430360704742
:1019E0000007000F0838830804489B001818C369D3
:1019F00093430B43C361704700E400E000ED00E057
:101A0000F8B5044620683A4EC0035CD50025F0695D
:101A1000C00007D4F06931040843F061F069084060
:101A20000090012533480168C90517D40068FF21DB
:101A3000013108432F490860FFF74AFC07462D484B
:101A40000068C0050AD4FFF743FCC01B642801D915
:101A50000320F8BD27480068C005F4D5306A03218B
:101A600009020840002821D062680A4082421DD045
:101A7000306A8843326A012109040A433262326AB9
:101A80008A4332623062C00710D0FFF721FC07465C
:101A9000306A80070AD4FFF71BFCC11B164881423D
:101AA00001D90320F8BD306A8007F4D5306A0321DC
:101AB00009028843616808433062012D03D1F0694F
:101AC00029078843F0612078C00705D0306BA168F2
:101AD00080088000084330632078800605D5306B8D
:101AE00010218843E168084330630020F8BD0000FE
:101AF000001002400070004088130000F8B5044652
:101B00000D46002C12D043480068C007C00FA84201
:101B10000ED2404801684908490029430160006825
:101B2000C007C00FA84203D00120F8BD0120F8BDB6
:101B30002068394E81070CD5400704D5706807210D
:101B40000902084370607068F0218843A168084367
:101B500070602078C00731D06068012806D0022864
:101B600009D0316889070BD40120F8BD3168890399
:101B700006D40120F8BD3168890101D40120F8BDE7
:101B800071688908890001437160FFF7A1FB07466E
:101B9000716862680C200140920091420ED0FFF7FC
:101BA00097FBC11B1D48814201D90320F8BD706815
:101BB0000C210840616889008842F0D1154801680D
:101BC000C907C90FA9420BD901684908490029432F
:101BD00001600068C007C00FA84201D00120F8BD15
:101BE0002078400706D57068072109028843E1681C
:101BF0000843706000F018F87168094A0906090F77
:101C0000515CC840074908600020FFF793FE0020A0
:101C1000F8BD0000002002400010024088130000C0
:101C2000746500088800002030B589B01BA04368A7
:101C300002688168C06805930492069107901BA012
:101C4000836842680168C068029301920091039022
:101C50001A4A50680C210140194C04291AD008294D
:101C600018D18102090F04AB5D5CD16A6A4609078D
:101C7000090F525CC00308D5002320461946FEF721
:101C800059FA294601F01DFC03E028460D4901F0F0
:101C900018FC0446204609B030BD000002030405CC
:101CA000060708090A0B0C0D0E0F101001020304A1
:101CB00005060708090A0B0C0D0E0F100010024054
:101CC00000127A0000093D00F0B583B00446002CF4
:101CD0000ED02078FE4DC00767D068680007800FDF
:101CE00001280BD068680007800F022803D00EE09F
:101CF000012003B0F0BD6868C00308D528688003E0
:101D000053D56068002850D1012003B0F0BD606851
:101D100001281DD00121890400281FD0052826D0C4
:101D20002A68881082432A6028688843286060688F
:101D3000002829D0FFF7CCFA06462868800334D45F
:101D4000FFF7C6FA801B64281AD9032003B0F0BD40
:101D500028680121090408432860E8E7286801226F
:101D6000120490432860286888432860DFE72868C9
:101D70000843286028680121090408432860D6E741
:101D800028688003DCD510E0FFF7A2FA0646286831
:101D900080030AD5FFF79CFA801B642802D9032030
:101DA00003B0F0BD28688003F4D42078800751D5B3
:101DB00068680007800F07D068680007800F022856
:101DC00013D16868C00310D42868800705D5E0687F
:101DD000012802D0012003B0F0BD2868F821884313
:101DE0002169C9000843286034E0E06800281CD05D
:101DF0002868012108432860FFF76AFA0646286828
:101E000080070AD4FFF764FA801B022802D9032056
:101E100003B0F0BD28688007F4D52868F82188430E
:101E20002169C9000843286014E028684008400080
:101E30002860FFF74DFA0646286880070AD5FFF7A5
:101E400047FA801B022802D9032003B0F0BD28689E
:101E50008007F4D4207800072DD5E069002815D03C
:101E6000686A012108436862FFF732FA0646686A29
:101E7000800720D4FFF72CFA801B022802D9032008
:101E800003B0F0BD686A8007F4D514E0686A4008C2
:101E900040006862FFF71CFA0646686A80070AD5A8
:101EA000FFF716FA801B022802D9032003B0F0BD09
:101EB000686A8007F4D420780426400700287DDA79
:101EC0000027E869C00007D4E869B1060843E86163
:101ED000E8690840019001277E480168C90519D4C6
:101EE0000068FF21013108437A490860FFF7F0F9E3
:101EF000029078480068C0050CD4FFF7E9F9029910
:101F0000401A642802D9032003B0F0BD714800686C
:101F1000C005F2D5A06801281DD0002820D00528D2
:101F200026D0286A400840002862286AB043286208
:101F3000A068002828D0FFF7CBF90290286A800714
:101F400036D4FFF7C5F90299411A6348814217D97F
:101F5000032003B0F0BD296A012001432962E7E7AD
:101F6000286A400840002862286AB0432862DFE7F8
:101F7000286A30432862286A012108432862D7E78B
:101F8000286A8007DDD513E0FFF7A2F90290286ADE
:101F900080070DD5FFF79CF90299411A4E488142FE
:101FA00003D9032003B0F0BD08E0286A8007F1D40C
:101FB000012F03D1E86939078843E8612078C0061A
:101FC00047D56069012816D0401D34D0686B304376
:101FD0006863686B400840006863FFF779F906465C
:101FE000686B800735D5FFF773F9801B02282DD960
:101FF000032003B0F0BD686B30436863686B012158
:1020000008436863FFF764F90646686B80070AD4E3
:10201000FFF75EF9801B022802D9032003B0F0BD50
:10202000686B8007F4D5686BF8218843A169C90003
:10203000084368630DE0686BB0436863696BF82020
:102040008143A069C0000143696302E0686B8007B7
:10205000C9D4206A002877D069680907890F022946
:1020600057D001263606022810D02868B0432860D1
:10207000FFF72EF904462868800165D5FFF728F997
:10208000001B022841D9032003B0F0BD2868B043EB
:102090002860FFF71DF90746286880010AD5FFF779
:1020A00017F9C01B022802D9032003B0F0BD28682D
:1020B0008001F4D4E86AE16A000900010843E8629B
:1020C000A16A606A014368683D221204904305E0FA
:1020D0000010024000700040881300000143696056
:1020E000286830432860FFF7F3F804462868800129
:1020F0002AD4FFF7EDF8001B022802D9032003B011
:10210000F0BD28688001F4D51EE028688001B5D4B0
:102110001AE0012815D06868E96A01221204636A8E
:1021200002409A420AD10907E26A090F914205D199
:102130000F2189040840A16A884205D0012003B01C
:10214000F0BD012003B0F0BD002003B0F0BD0000E1
:1021500010B50B46006841680D480140080CD87066
:10216000CC04E40E5C708C06A40E9C700904490F2C
:102170001970002A0AD100F081FFD870587800F059
:102180007DFF5870987800F079FF9870002010BD9E
:102190003FFFFF0010B50B460168896A596001686E
:1021A00009694904490C9960006801680E480140BA
:1021B0008802800E18704C04640E5C704C06640E2D
:1021C0009C70090C40242140D970002A0AD100F0EB
:1021D00055FF1870587800F051FF5870987800F04B
:1021E0004DFF9870002010BD7F7F7F0070B50446C2
:1021F000002C03D0607F002802D006E0012070BDD3
:1022000000202077204600F051F8022060772168F6
:10221000CA204862216853204862204600F042FFED
:10222000FF250426002804D0206845626677012037
:1022300070BD206881681C4A1140816020688168F7
:1022400062686369114322691A43114381602168FE
:10225000E068086120680169228912041143016164
:102260002068C16880229143C16020688068800630
:1022700009D4204600F00CF9002804D020684562FB
:102280006677012070BD2068016C012292049143A1
:1022900001642068016CA2691143016420684562F1
:1022A00001206077002070BDBFFF8FFF00680549E7
:1022B000884205D10448016A0122D2031143016218
:1022C000704700000028004000100240F8B50446A6
:1022D0000B46207F012806D001202077022060775E
:1022E000002A02D008E00220F8BD5878C10603D5C4
:1022F000EF2108400A305870002A1DD0D8789D7808
:10230000000405435878197800024903084305433F
:102310002168CA204862216853204862204600F0A4
:10232000C1FE0026FF27002817D02068476204203E
:10233000607726770120F8BDD87800F0A7FE050465
:10234000587800F0A3FE00020543987800F09EFE46
:102350000543187840030543DAE710480540206834
:1023600045602068C16880229143C1602068806810
:1023700080060BD4204600F08BF8002806D0206899
:1023800047620420607726770120F8BD2068476205
:102390000120607726770020F8BD00003FFFFF0096
:1023A000F8B504460D46207F012828D0012020776B
:1023B000022060770027002A23D02068806840062A
:1023C00000D4EF702878AE78000406436878E97886
:1023D00000020904084306432168CA2048622168B4
:1023E00053204862204600F05DFE00281FD021687F
:1023F000FF2048620420607727770120F8BD022083
:10240000F8BD20688068400600D4EF70287800F09E
:102410003DFE0604687800F039FE00020643A87805
:1024200000F034FE0643E87800040643D4E717487A
:10243000064020680660206881680122920491436A
:102440008160E968286901432068826811438160DE
:102450002068C16880229143C1602068806880063E
:102460000CD4204600F014F8002807D02168FF2083
:1024700048620420607727770120F8BD2168FF209B
:1024800048620120607727770020F8BD7F7F7F00BA
:1024900070B504462068C168A0229143C160FEF770
:1024A00017FF05462068C06880060CD47D26F6001C
:1024B000FEF70EFF401BB04201D9032070BD20681B
:1024C000C0688006F4D5002070BD000010B40B4930
:1024D000401E884202D910BC01207047084948615B
:1024E00008480723C2691202120A4C042243C2613F
:1024F000002088610B6110BC70470000FFFFFF00E7
:1025000000E000E004ED00E07047704730B40246A0
:102510002032137F012B27D001231377CB680024AF
:1025200003252D02AB438D682B430125AD02AB4340
:102530004D682B430125ED02AB430D682B4301256C
:102540002D03AB430D692B4301256D03AB434D694F
:102550002B430125AD03C969AB430B4300684364BA
:10256000147730BC0020704730BC02207047000058
:10257000F0B402462032137F012B1CD001261677BF
:102580000223537703685D689C687027BD430F681A
:102590002F435F600068094B984202D0084B984275
:1025A00004D180239C4349682143816056770020F1
:1025B0001077F0BC7047F0BC02207047002C01403F
:1025C0000004004070B50446002C05D02546203597
:1025D000687F002802D006E0012070BD0020287727
:1025E000204600F00BF802206877211D206800F0DB
:1025F000BFFD01206877002070BD000008B5104ABB
:1026000001681048914207D18269C1140A4382616E
:1026100080690840009008BD0B4A9142FBD1C26915
:1026200089150A43C261C069002208400090114622
:102630001320FFF7C3F91320FFF7B4F908BD00001A
:10264000002C014000100240002000400168CB68CF
:1026500001221343CB60006881684907490F0629AE
:1026600002D001681143016000207047F8B50446AC
:1026700025462035287F012817D001262E770220F5
:102680006877206882687727BA43FF231B029A4342
:1026900082600A68502A31D00EDC202A4CD006DC39
:1026A000002A49D0102A4BD146E00220F8BD302A3A
:1026B00042D0402A44D135E0602A29D0702A12D075
:1026C00001231B03D01A3BD0984239D1CB684A680A
:1026D0008968206800F098FD2068816801229203D3
:1026E000114381602CE0CB684A688968206800F05B
:1026F0008BFD206881683943816021E0CA684968A0
:10270000206800F08DFE5021206800F089FD17E060
:10271000CA684968206800F095FE6021206800F0D2
:102720007FFD0DE0CA684968206800F079FE40210D
:10273000206800F075FD03E01146206800F070FD90
:102740006E7700202877F8BD704770B50446206882
:1027500001690025C9438907002916DBC168C943FF
:10276000890712D4E91E0161012020772068806961
:10277000800703D02046FFF7E7FF05E0204600F082
:10278000C1F8204600F04AF9257720680169C9435D
:10279000490718D4C168C943490714D40421C9435F
:1027A000016102202077206880698005800F03D0B6
:1027B0002046FFF7C9FF05E0204600F0A3F82046B9
:1027C00000F02CF9257720680169C943090717D45F
:1027D000C168C943090713D40821C9430161042012
:1027E00020772068C069800703D02046FFF7ACFF40
:1027F00005E0204600F086F8204600F00FF9257726
:1028000020680169C943C90618D4C168C943C9060B
:1028100014D41021C9430161082020772068C069C1
:102820008005800F03D02046FFF78EFF05E020468D
:1028300000F068F8204600F0F1F82577206801697B
:10284000C943C90708D1C168C943C90704D1891E52
:102850000161204600F042F920680169C943090678
:1028600009D4C168C943090605D48021C94301615F
:102870002046FFF749FE20680169C943490609D48B
:10288000C168C943490605D44021C94301612046B6
:1028900000F042F920680169C943890609D4C1687A
:1028A000C943890605D42021C94301612046FFF7A9
:1028B0002CFE70BD10B586B0044614216846FDF7A5
:1028C000A6FC0E492068884215D10D4842690121B5
:1028D00049040A434261406908400590881100900C
:1028E0000020022102900390019104910920694681
:1028F000C006FEF745FC06B010BD0000002C0140EC
:10290000001002407047F8B504460E4625462035B3
:10291000287F01280DD0012028770220687704271E
:10292000002A08D0042A19D0082A2DD00C2A54D104
:102930003DE00220F8BD3146206800F079FC2068B7
:10294000816908221143816120688169B9438161ED
:10295000206881693269114381613EE03146206817
:1029600000F0A6FC206881690122D2021143816136
:1029700020688169521091438161206881693269C0
:1029800012021143816128E03146206800F0D2FC38
:102990002068C16908221143C1612068C169B94337
:1029A000C1612068C16932691143C16115E03146D6
:1029B000206800F0FFFC2068C1690122D2021143A7
:1029C000C1612068C269012189028A43C26120680D
:1029D000C169326912021143C16101206877002088
:1029E0002877F8BD70B50446002C05D02546203563
:1029F000687F002802D006E0012070BD0020287703
:102A0000204600F00AF802206877211D206800F0B7
:102A1000AFFB01206877002070BD70477047000051
:102A200010B504460122206800F0E0FB0D48216843
:102A3000814205D00C48814202D00C48814204D129
:102A4000486C0122D203104348642068816849071A
:102A5000490F062903D001680122114301600020BB
:102A600010BD0000002C014000440140004801401E
:102A700030B504460022206800F0B8FB144A134821
:102A800021689310814205D01248814202D0124839
:102A900081420AD1086A104207D1086A184204D15B
:102AA000486C0125ED03A84348642068016A11427F
:102AB00006D1016A194203D1016849084900016041
:102AC000012020346077002030BD0000002C014040
:102AD00011110000004401400048014010B5006899
:102AE0000A49884210D10A488168491C81600178EE
:102AF000491CC9B20170052906D1002101700549A0
:102B00000846183802F052F810BD000000200040BE
:102B100000000020F40000207047FEE701688A6989
:102B2000D243920701D400228A6200688169C943B6
:102B3000C90703D0816901221143816170470000F8
:102B4000F8B504460E46174620688169C943C90690
:102B500036D480692546C0438006403500280DDA0A
:102B6000701C06D0FEF7B4FBC01BB0421ED8002E6E
:102B70001CD020688069C0438006F1D421681020F1
:102B8000C86120682026C6612046FFF7C7FF20687D
:102B900041680C4A11404160606C04210843606444
:102BA0006E700020A87028700120F8BD616C202094
:102BB0000143616468700020A87028700120F8BD8E
:102BC0000020F8BD00E800FEF8B5079F0446164651
:102BD0001D4619480090EAB20023204600F068F82C
:102BE0003A462046069900F0D2F8002801D001208C
:102BF000F8BD2846F5B201280BD02168300A88625A
:102C00003A462046069900F0C2F8002804D0012078
:102C1000F8BD2068856201E0206885620097002287
:102C200040212046069B00F057F8002801D00120E3
:102C3000F8BD0020F8BD000000200080F8B5079F17
:102C4000044616461D4619480090C302EAB22046C3
:102C500000F02EF83A462046069900F098F8002831
:102C600001D00120F8BD2846F5B201280BD021681B
:102C7000300A88623A462046069900F088F8002813
:102C800004D00120F8BD2068856201E020688562DB
:102C90000097002280212046069B00F01DF80028A6
:102CA00001D00120F8BD0020F8BD00000020008008
:102CB000F0B4049C00684568660D8905890D054FD0
:102CC000120411433E431943B54321430D4345606C
:102CD000F0BC7047FF63FF03F8B504460E46174685
:102CE0001D46206881693046884316D00020B842CE
:102CF00011D1681C07D0FEF7EBFA0699401AA842DA
:102D00000DD8002D0BD0206881693046884311D042
:102D10000020B842EDD00020F8BD0120E7E7616C4B
:102D2000202001436164403460700020A070207056
:102D30000120F8BD0120ECE770B504460D461646AB
:102D400020688069C043800614D532462946204653
:102D5000FFF7F6FE002801D0012070BDFEF7B8FA9B
:102D6000801BA84208D8002D06D020688069C04387
:102D70008006EAD4002070BD616C202001436164AC
:102D8000403460700020A0702070012070BD70B5CC
:102D900004460D46164620688069C043800716D554
:102DA000324629462046FFF7CBFE002801D00120FD
:102DB00070BD681C06D0FEF78BFA801BA84208D8AD
:102DC000002D06D020688069C0438007E8D4002029
:102DD00070BD616C2020014361644034607000204C
:102DE000A0702070012070BD0EB500211848009120
:102DF00001910291154A4160026081600122042321
:102E00000C300EC0017041708170FF23C170C2335D
:102E10004360034681600833197102611838FEF778
:102E200023F8002801D0FDF767FE0520009001205F
:102E3000000301900004029069460548FDF782FFF7
:102E4000002801D0FDF758FE0EBD0000002401400F
:102E50004C02002008B50C484269012189050A434B
:102E6000426142690A400092426949110A43426143
:102E700042690A400092426949000A43426140693E
:102E80000840009008BD00000010024010B5134833
:102E90001149016012494160002181600161416175
:102EA00081610122C161C2600162FEF76BFA0028F4
:102EB00001D0FDF721FE00210848FEF70FFA002897
:102EC00001D0FDF719FE00210448FEF731FA002871
:102ED00001D0FDF711FE10BD005400408C0200200F
:102EE0000B02000030B587B014216846FDF78FF95A
:102EF00000241B491B48059412C0632101608460B3
:102F0000C4601949046141600838FFF76FF900286F
:102F100001D0FDF7F1FD16216846017022254570AC
:102F2000182181700394012269460E480494FFF72A
:102F300037FA002801D0FDF7DFFD0621684601754C
:102F40000321417505218175C575012205A9054833
:102F5000FFF7BCF9002801D0FDF7CEFD07B030BD6A
:102F600000280040EC020020C309000010B50A4808
:102F7000084901600949416000218160092201611D
:102F8000C2608161FFF71EFB002801D0FDF7B4FD90
:102F900010BD0000002000404C030020BF120000C4
:102FA00010B596B000240F941094119412941394B9
:102FB0001C2108A81494FDF72AF920216846FDF782
:102FC00026F92B48294901602A498460416004613F
:102FD000446109218461C160FFF7F4FA002801D03F
:102FE000FDF78AFD012000030F900FA92048FFF78D
:102FF0003DFB002801D0FDF77FFD1D48FFF7F2FCE7
:10300000002801D0FDF778FD139413A918481494F3
:10301000FFF7AEFA002801D0FDF76EFD60200890A2
:1030200005200E9409900A940C940D940C2208A982
:103030000F48FFF768FC002801D0FDF75DFD012077
:10304000009440030294059001940394049469460B
:1030500007940748FFF75AFA002801D0FDF74CFD06
:103060000348FFF727FC16B010BD0000002C0140FC
:103070000C030020BF0300007047704701090A22BB
:1030800051430007000F4018C0B2704700210A28C2
:1030900004D3491C0A38C0B20A28FAD20907090E1B
:1030A0000843704770B504462068C168490616D4C5
:1030B0000021C943C160FEF70BF905462068C068CE
:1030C00040060CD47D26F600FEF702F9401BB04204
:1030D00001D9032070BD2068C0684006F4D50020E7
:1030E00070BD704710B5FEF70DFC10BD30B595B042
:1030F00030216846FDF78BF800240F9413200090D0
:1031000001200D94129410940390019005901020CA
:103110000E941394069004900003099000010C94FF
:1031200002250A90119408950B946846FEF7CCFD91
:1031300007200C900E9401210D950F940CA8FEF71A
:10314000DDFC05481090032000021190139410A894
:10315000FEF756FC15B030BD20000100704700009E
:1031600010B50248FFF7F1FA10BD00004C03002033
:1031700070B40268184C194EA04201D0B04204D17C
:1031800070251346AB434A681A43154B154DA042B0
:1031900008D0B04206D0144EB04203D0984201D0BD
:1031A000A84204D103263602B243CE6832438026B9
:1031B000B2434E69324302608A68C2620A68826220
:1031C000A04203D0984201D0A84201D1096901630D
:1031D0000121416170BC7047002C01400004004097
:1031E00000440140004801400020004010B4C906DE
:1031F000C90E01238B40046A9C430462036A8A401F
:103200001343036210BC704730B48468FF252D025D
:10321000AC431B0213430B432343836030BC704712
:10322000826870239A430A4307210A4382607047E9
:10323000F0B4026A520852000262056A4368826969
:103240007024A243920892000C6814430222954312
:103250008A682A43134E144FB04204D0B84202D0B9
:10326000124DA84206D10825AA43CD681543042271
:1032700095432A46B04204D0B84202D00B4DA84232
:1032800008D1FF250135AB436D00AB434D691D43AC
:103290008B692B4343608461496841630262F0BCDF
:1032A00070470000002C01400044014000480140EC
:1032B000F0B4026A10239A430262046A4368826986
:1032C00007252D03AA4303252D02AA430D682D02CD
:1032D0001543202294438A6812012243124EB042C1
:1032E00007D180271446BC43CA68120122434024F8
:1032F000A243B04205D00D4CA04202D00C4CA042DB
:103300000AD10124A402A3436400A3434C69A4008E
:103310001C438B699B00234343608561496881633B
:103320000262F0BC70470000002C014000440140E4
:1033300000480140F0B4026AFF2301339A4302625D
:10334000046A4368C2697025AA43920892000D6816
:1033500015430122520294438A6812022243124EFC
:10336000B04207D1C7141446BC43CA6812022243B4
:103370000415A243B04205D00C4CA04202D00C4C24
:10338000A0420AD101242403A3436400A3434C694F
:1033900024011C438B691B0123434360C5614968B9
:1033A000C1630262F0BC7047002C01400044014040
:1033B0000048014070B4026A01231B039A43026271
:1033C000046A4268C36907252D03AB4303252D0218
:1033D000AB430D682D021D4301235B039C438B68A7
:1033E0001E0326430B4B984205D00B4B984202D04C
:1033F0000A4B984206D10124A4031346A3434A6909
:1034000092011A434260C56149680164066270BC5A
:1034100070470000002C014000440140004801407A
:1034200030B4036A046A6408640004628469F025A5
:10343000AC43120122430A24A3430B43826103627B
:1034400030BC704730B4036A1024A343036283691D
:10345000046A0F252D03AB4312031A43A0239C4398
:10346000090121438261016230BC70470FB410B57D
:1034700004A9074B02AA039800F004F9044602A924
:10348000002000F09BFC204610BC08BC04B018478C
:10349000BD3D00082021020C01D010211046020A77
:1034A00001D010460839020901D01046091F8208D0
:1034B00001D01046891E420801D0881E7047081AA4
:1034C0007047F0B4040C8BB2264682B25E430D0CFA
:1034D0001046370C584336048019002179411646AE
:1034E0006E43370C36048019794126466E4389199C
:1034F000F0BC704730B47446641E2578641CAB423F
:1035000000D21D46635D5B00E31830BC184702E043
:1035100008C8121F08C1002AFAD17047704700205E
:1035200001E001C1121F002AFBD17047F0B51FB4A2
:1035300084B007980699020D014314D04A484B49BC
:103540001018484305140F9801280E981CD0281A0B
:10355000401C0024464E47490094019102900028E7
:1035600014DA474227E00F98012443A3012808D02A
:10357000002104980F9A84600360C260416009B022
:10358000F0BD0E98C143F4E74042E2E7074612E07F
:10359000F80707D02246334601990098FCF7D4FF7C
:1035A000019100902246334610461946FCF7CCFFA5
:1035B00004460E467F10002FEAD10298019B002896
:1035C000009A0799069802DAFCF7BEFF01E0FDF7C2
:1035D00081F904460E460022284BFDF713FA03D862
:1035E0000020C043014607E00022254B204631461B
:1035F000FCF7F8FEFDF7E6F9102409E0002C0ADBE1
:103600000A220023FCF796FD059B30321A55641EF2
:1036100002460A43F2D11122641C059B121B1C199D
:103620000F9B012B03D0012308430ED10AE008436E
:1036300004D011200E9000200F9084E70E98151AE8
:103640006D1E0BE00E98824202DD00236D1C03E02C
:10365000824201DA00236D1E002BEED004980F99F0
:103660008260C16030C08AE701FCFFFF104D00009E
:10367000000024400000F03F300000000000F04354
:103680000000E03FFFB597B00646002518E2252868
:1036900077D100242746FD49049400E00443761CBA
:1036A00032780120203A90400842F7D130782A2819
:1036B0000ED00222307801463039092916D80499F3
:1036C0000A235943303940181443761C0490F1E71B
:1036D000189802C804911890002904DA01204003C8
:1036E00004434842049002200443761C30782E287C
:1036F00014D1042004437078761C2A2809D1189824
:10370000761C80C8189009E00A214F43303FC71942
:10371000761C3078014630390929F5D930786C2883
:1037200010D006DC4C281AD068280ED06A2817D191
:1037300004E0742813D07A2812D110E0012040054B
:1037400004430CE00121090501E0032109050C43B4
:103750007178814203D1012000052418761C761C63
:103760003078119066280BD013DC58287DD009DC06
:1037700000287BD04528F6D04628F4D047281AD117
:10378000A5E118E0632835D0642870D0652812D1EF
:103790009DE170286CD008DC6728F1D069287BD0C7
:1037A0006E280DD06F2806D1BAE073282ED0752868
:1037B00071D0782859D01A9A199990476D1C7EE1DA
:1037C0006002400F022809D003280DD00428189861
:1037D00001680DD00D60001D189070E11898EA176F
:1037E00001680D604A60F6E7189801680D80F2E7FD
:1037F0000D70F0E718986A4601781172001D189054
:103800000020507202A80090012005E0189802C81C
:10381000189000200091C04361070DD5002101E000
:103820000199491C0191B94212DA8142F8DB009AF0
:10383000515C0029F4D10BE0002101E00199491C01
:1038400001918142FADB019A0099895C0029F5D146
:10385000019904981A9B471A21463846199A00F094
:1038600097FA0199401945180BE04FE02CE113E05D
:103870004EE0009800990078491C00911A9A199915
:1038800090470198401E0190401CF2D121463846D5
:103890001A9B199A10E137E00A200021009001914B
:1038A0006002410F022907D0189A01CA1892C21764
:1038B0009446032908D00AE01898C01DC108C90021
:1038C00005C91891944607E000B2C217944604292E
:1038D00002D140B2C1178C4600226146944506DAF7
:1038E0000A460021404291418C462D2102E02105EB
:1038F00004D52B216A461173012103E0E10701D0B1
:103900002021F7E7029155E00A200AE0102008E0A4
:10391000102000900021042004430191082703E0B7
:1039200008200021019100906002410F022907D078
:10393000189A01CA189200229446032908D008E078
:103940001898C01DC108C90005C91891944603E024
:1039500080B2042900D1C0B200210291210729D5EB
:103960001199702906D0009A1021019B4A401A43F0
:1039700005D00EE040216A461173012108E061463E
:10398000014306D030216A46117311995173022107
:103990000291009A0821019B4A401A430AD16146CC
:1039A000014301D1610705D530216A461173012118
:1039B0007F1E02911199582904D035A10E910DA9AD
:1039C0000D910DE037A1F9E76146019B009AFCF7E4
:1039D000B1FB0E9B8C469B5C0D9A521E0D92137090
:1039E00061460143F0D10D9805A9081A20300190D5
:1039F000600703D501200004844300E001270198FB
:103A0000874201DD381A00E000200199009041183A
:103A1000029809180498401A0490E00306D421463D
:103A20001A9B199A049800F0B3F94519002706E08B
:103A300003A81A9AC05D199990476D1C7F1C0298C3
:103A40008742F5DBE0030CD521461A9B199A0498AE
:103A500000F09EF9451904E01A9A30201999904710
:103A60006D1C0099481E00900029F5DC08E00D98B7
:103A70000D990078491C0D911A9A199990476D1C5F
:103A80000199481E01900029F1DC63E10928010039
:103A900030313233343536373839616263646566C4
:103AA0000000000030313233343536373839414286
:103AB000434445460000000000F05AF94519761CC1
:103AC0003078002800D0E2E528461BB0F0BD600742
:103AD00000D406271898C01DC108C90048680A68A4
:103AE0000831C30FDB071891190001D09CA108E031
:103AF000210501D59BA104E0E10701D09AA100E0D6
:103B00009AA1430011985B08109165280CD006DC3F
:103B1000452809D046281DD0472841D141E06628D4
:103B200018D067283CD13CE00021112F01DB112087
:103B300000E0781C0191009008A911A8FFF7F6FC9D
:103B4000139905910021119A15927F1C12980197E3
:103B5000009150E00120C00703900120019008A9C6
:103B6000009711A8FFF7E2FC139A1499059200221E
:103B7000119B009212981593059A0192002901D089
:103B8000104602E0791C40180190381A01D50198BE
:103B900004E04042401E0090781C0190C01B02903F
:103BA00043E0012F00DA01270021112F01DD112050
:103BB00000E038460191009008A911A8FFF7B6FC73
:103BC00013990591119A002112981592009101976D
:103BD00021070CD40599B94201DB019900E001915C
:103BE000012904DD159A491E515C302906D0B842DE
:103BF00001DA011D05DA0121029115E00199491E42
:103C0000EDE7002805DC0099411800910199091A97
:103C100003E0019A411C914200DD01910099401A94
:103C2000401C02900120C0070390200706D402998F
:103C30000198814202DB0020C043029000206946C7
:103C4000C87707AF012103980337C907884224D0FA
:103C5000022011902B201290039800280CDA404289
:103C600003902D20129007E00A210398FCF738FA00
:103C700030317F1E039039701199481E1190002930
:103C8000F2DC03980028EFD1791E12980870307882
:103C9000202108404530BF1E387006A8C01BC01D3B
:103CA000039010980078002800D001200199411855
:103CB0000298C0170918039809180498401A401E62
:103CC0000490E00306D421461A9B199A049800F048
:103CD0005FF8451910980078002803D01A9A1999AE
:103CE00090476D1CE00324D521461A9B199A04982D
:103CF00000F04EF845191CE00098002807DB0099F9
:103D00000598884203DD1598405C199901E01999DE
:103D100030201A9A904700986D1C401C0090029821
:103D2000401E0290002804D11A9A2E20199990471B
:103D30006D1C0199481E01900029DDDC05E03878F2
:103D40001A9A7F1C199990476D1C0399481E03907D
:103D50000029F4DC21461A9B199A0498ACE600006D
:103D60002D0000002B0000002000000000000000DB
:103D7000F8B5044600251E461746880404D405E01D
:103D800039462020B0476D1C641EF9D52846F8BD81
:103D9000FFB50446002581B01E46C80301D5302773
:103DA00000E02027880404D505E038460399B04791
:103DB0006D1C641EF9D5284605B0F0BD0A68531C79
:103DC0000B601070704700000FB4F0B5764D85B0F1
:103DD000E87B10A90C7A01287ED17449744801F05F
:103DE0004EFD74A314220021714801F025FD0E98A8
:103DF000FCF73AFC02B270A101A8FFF737FB2322BF
:103E000001AB11466A4801F017FD0F260D231A4633
:103E100028216748009601F0FCFB68490E98FCF7E2
:103E20005AFA6749FCF757FA0090FCF751FF6549C9
:103E3000FCF751FAFCF718FC47B228370098FCF75A
:103E400009FF6049FCF747FAFCF70EFC0D2140B270
:103E5000081A80B20A460090BBB22821544801F0EB
:103E60007DFC59A338220021514801F0E5FC0F9850
:103E7000FCF7FAFB02B250A101A8FFF7F7FA01AB79
:103E80004B2223214A4801F0D7FC0D23352228215B
:103E90004748009601F0BDFB48490F98FCF71BFA14
:103EA0004749FCF718FA0090FCF712FF4549FCF768
:103EB00012FAFCF7D9FB47B228370098FCF7CAFE84
:103EC0004049FCF708FAFCF7CFFB352140B2081A4D
:103ED00080B2BBB20A4600E046E000902821344898
:103EE00001F03CFC39A360220021314801F0A4FC20
:103EF0001198FCF7B9FB02B22FA101A8FFF7B6FA9F
:103F000001AB732223212A4801F096FC0D235D2288
:103F100028212748009601F07CFB28491198FCF7DE
:103F2000DAF90646FCF7D4FE2649FCF7D4F9FCF78B
:103F30009BFB47B230462837FCF78CFE2149FCF743
:103F4000CAF9FCF791FB5D2140B2081A80B20A461B
:103F50000090BBB22821164801F000FC1C491098C3
:103F6000884201DD002C1BD0E87B032813D10F49C8
:103F70000F4801F084FC17A33C2200210C4801F0FB
:103F80005BFC012C01D0022C05D1074900205031E7
:103F900048700120E87305B0F0BC08BC04B01847B5
:103FA0000320E873E3E700000C000020726D0008B6
:103FB000B8010020580000002564000035FA8E3C4E
:103FC0000000C04000005041590000005A000000AD
:103FD00000003041534554204F4B21000FB4FEB533
:103FE0000026244C009601960296207C10A90D789C
:103FF000012818D121461131284600F01BFF002866
:1040000002D00320207411E0627C1BA16846FFF7F8
:104010002DFA1B491B4801F032FC6B467822002127
:10402000184801F009FC207C03281ED114491548CA
:1040300001F025FC14A33C220A21124801F0FCFBEC
:1040400013A346220A210F4801F0F6FB124A0E99EB
:104050000120914201DD002D06D0012D01D0022D5D
:1040600003D1044950314E702074FEBC08BC04B02A
:10407000184700000C0000202564207074730000B5
:10408000726D0008B801002047414D450000000056
:104090004F55455200000000000030410FB4F8B504
:1040A000724C02272646207D50363578002814D1E0
:1040B00008A90A7E0121012A04D0022A07D0002A79
:1040C0000AD00AE0012D3ED0E174217510E0052DE3
:1040D00003D0E774217513E07170012802D0022823
:1040E00028D030E0E07C012802D0022808D010E07F
:1040F000208B401C00B2208300280ADD002007E04E
:10410000208B401E01B26320C0432183814200DA2C
:1041100020831821605EFBF7F9FF002913D1E07CB2
:10412000012802D0022802D003E06D1E00E06D1CC1
:1041300035702775A07C401CC0B2A0740F2802D136
:104140000020A07420754A494A4801F098FB208B52
:1041500049A341004018123081B27822454801F04D
:104160006BFB4649434801F08AFB208B4523410005
:1041700040180C3081B25A223E4801F069FA3C499D
:104180003C4801F07CFB208B3DA341004018583097
:1041900081B27822374801F04FFB3849354801F0A9
:1041A0006EFB208B482341004018523081B25A22C6
:1041B000304801F04DFA2E492E4801F060FB208B6B
:1041C00030A3410040189E3081B27822294801F086
:1041D00033FB2A49274801F052FB208B4123410041
:1041E0004018983081B25A22224801F031FA204911
:1041F000204801F044FB208B23A341004018E43009
:1042000081B278221B4801F017FB1C49194801F0C4
:1042100036FB208B462341004018DE3081B25A2203
:10422000144801F015FA1249124801F028FB208BBE
:1042300017A341004018FF302B3081B278220D487F
:1042400001F0FAFA0D490B4801F019FB208B4723C6
:1042500041004018FF30253081B25A22054801F054
:10426000F7F9F8BC08BC04B0184700000C000020A7
:10427000726D0008B8010020525443006E690008B6
:104280005354570053455400414852530000000016
:1042900047414D45000000000FB47FB50025504C4C
:1042A00001950295039520784E4E002876D14E490F
:1042B0004E4801F0E4FA08A8807A214680003431A3
:1042C00040188038C26F4AA101A8FFF7CFF801ABB0
:1042D00055223221454801F0AFFA0998FCF7F1F96F
:1042E00002460B4643A101A8FFF7C0F801AB092223
:1042F00032213E4801F0A0FA40493C4801F0BFFAA3
:104300003FA332220A21394801F096FA08A8C37A5D
:10431000427A3DA101A8FFF7A9F801AB552200217F
:10432000324801F089FA08A8807B009008A8437BF6
:10433000027B38A101A8FFF799F801AB5F220521A4
:104340002A4801F079FA08A8027A36A101A8FFF7F5
:104350008DF801AB4B220C21244801F06DFA0E9828
:10436000FCF7AFF902460B4630A101A8FFF77EF833
:1043700001AB782214211D4801F05EFA10A80078E4
:10438000012801D0022802D11548503045700E98FE
:10439000B04203DD0220207013E0FFE720780228FE
:1043A0000FD0042816D0032807D16078401CC0B273
:1043B0006070142801D1657025707FBC08BC04B002
:1043C00018476078401CC0B260701428F5D1657041
:1043D000042020700E98B042EFDD03202070E4E747
:1043E0000C0000200000A041EE700008B801002081
:1043F00025730000252E316656000000726D0008FE
:10440000492D52494E470000253032642025303274
:1044100064000000253032643A253032643A253099
:10442000326400003230253032640000252E3266BE
:10443000000000000FB4F0B585B00026B24C019624
:1044400002960396607A10A90F7A012873D1A17B96
:10445000AE4800291DD108A9097C017008A9497C32
:10446000417008A9C97C817008A9897CC17008A91C
:10447000097D017108A9497D417108A9897D817172
:10448000A3490A78C2714A7802728978417201217F
:10449000A173A17A491CC9B2A172062969D1A67279
:1044A000012F16D0022F55D0032F0AD0042F60D130
:1044B000617B491C49B261730A295AD10921617390
:1044C00057E0617B491E49B26173491C51D1667343
:1044D0004FE00D216156425C521C52B242540829F1
:1044E00012D0092910D005290ED006290CD0042994
:1044F0000ED007290CD001290FD0022914D0002991
:104500001AD003291FD034E03B2A32DD3B2202E0DF
:10451000172A2EDD172242542BE0012141560C2987
:1045200027DD0C21417024E0022141561F2920DDA6
:104530001F2181701DE0A6E000214156632918DD8E
:104540006321017015E003214156072911DD072180
:10455000C1700EE00D216156425C521E52B24254AF
:10456000012917D0022915D0032913D0002A00DA17
:104570004654664D00210A356448405C6854491C25
:10458000C9B20A29F8D3E07A401CC0B2E0720A2806
:1045900004D009E0002AECD10122BCE7E672207BBE
:1045A00000280AD000202073207B002807D00D208F
:1045B00056492056095C295404E00120F3E70D20F8
:1045C00020562E545349544801F059F945231E22D0
:1045D0000021514801F03CF850494F4801F04FF993
:1045E0000022AA564EA101A8FEF740FF01AB2822E7
:1045F0000021494801F020F90320285600900223A9
:104600000122EB56AA5648A101A8FEF72FFF01ABE5
:1046100032220021404801F00FF906202856009070
:1046200005230422EB56AA5642A101A8FEF71EFF5D
:1046300001AB3C220021384801F0FEF841493648E0
:1046400001F01DF941235A220021334801F000F8FE
:104650003249314801F013F9092028560090082307
:104660000722EB56AA5633A101A8FEF7FFFE01ABC5
:1046700064220021284801F0DFF83349109888426D
:1046800001DD002F1BD0607A032813D12349224873
:1046900001F0F5F82DA33C2200211F4801F0CCF8D1
:1046A000012F01D0022F05D117485030467001204C
:1046B0006072A67305B0F0BC08BC04B01847134D77
:1046C00024482978C17069784170A9788170E978A7
:1046D000017021482979017069794170A979817047
:1046E00000221C491D48FDF7F1FD00221A491B4814
:1046F000FDF756FE0648E9790170297A4170697A1A
:10470000817003206072C1E70C00002016010020B8
:10471000030000207E660008B8010020726D0008CA
:104720003230253032640000253032642530326466
:1047300020256400253032643A253032643A253031
:1047400032640000B3670008000030415345542034
:104750004F4B210084000020D8020020EC020020F2
:104760000FB4F0B57D4C85B0A07810A900250E7A65
:10477000002802D002285ED06CE00127032E02D070
:10478000042E05D019E0E57165712562656214E0BB
:10479000E77100206571C0432072704825620521D1
:1047A00028306562FBF733FD6C4805212D30FBF79F
:1047B0002EFD0A216A48FBF72AFD6A4910988842B3
:1047C00048DD002E46D10220A070E079002802D0FA
:1047D000012808D02FE06079002802D00020607105
:1047E00029E00120FBE76079012802D0002829D0C8
:1047F00021E0207A401C40B2207205280ED1574893
:10480000257205212830FBF702FD544805212D3083
:10481000FBF7FDFC0A215248FBF7F9FC4F49082041
:104820002056E27828310A542279491D0A54420060
:104830004B48E18A8152A079401CC0B2A0710A287D
:1048400006D007E0677105B0F0BC08BC04B018479B
:10485000A571A570444861790068002902D0E1691A
:10486000411A2162E061616A206A0F1800206762C4
:1048700020623E493846FBF733FCC5B27D21E57026
:10488000C9003846FBF72CFC3C21FBF729FC7D20B6
:104890002171C0004143781A34494D43401BE082E6
:1048A0003349344800F0EBFFE079002805D132A30A
:1048B000192200212F4800F0BFFFE079012805D11F
:1048C0002EA3192200212B4800F0B6FF2379E278AD
:1048D0002BA101A8FEF7CAFD01AB28220021254823
:1048E00000F0AAFFE28A2AA101A8FEF7BFFD01ABF2
:1048F000322214211F4800F09FFFE07901281ED1C9
:10490000174F002508202056A84214DB6800385AAB
:104910000090124820A12D30435D401F425D01A848
:10492000FEF7A4FD2A460A20424301AB00211148AC
:10493000553200F081FF6D1CEDB2042DE2D9012E3D
:1049400002D0022E00D07EE70020E07003492071E3
:10495000E08250314870A070607174E70C00002054
:104960000C010020000030410800002060EA000037
:10497000726D0008B80100204C41500053504C00AB
:104980002B25303264203A202530326400000000AC
:104990002530336400000000253031643A25303280
:1049A000643A253033640000FFB59FB00446002010
:1049B00012901490159016901390179000900190FB
:1049C000029003900490059006900790089009903B
:1049D0000A900B900C900D900E900F9010901190EB
:1049E000A069002206AF0FAE1B909000011912AB18
:1049F000CD681D50255815AB1D506B46CD691D5017
:104A000009AB0D6C1D5003AB8D6A1D500CADCB6C0A
:104A10002B504B6B3B50521C896DD2B23150032A44
:104A2000E3D301980290009801900A980B9009989E
:104A30000A9004980590039804900D980E900C9895
:104A40000D900798089006980790109811900F986D
:104A5000109020980B990068189000901498FBF71C
:104A60003AFC1E900A991398FBF735FC1D900299A9
:104A70001798FBF730FC1C9001991698FBF72BFC5C
:104A80001A9018991598FBF726FC1A99FBF7CAFBA0
:104A90001C99FBF7C7FB1B99FBF71DFC1D99FBF746
:104AA00012FC1E99FBF70FFC1299FBF751FC2099A1
:104AB0000990086021980068189003900E99149846
:104AC000FBF709FC1E900D991398FBF704FC1D9051
:104AD00005991798FBF7FFFB1C9004991698FBF7B4
:104AE000FAFB1A9018991598FBF7F5FB1A99FBF742
:104AF00099FB1C99FBF796FB1B99FBF7ECFB1D99A7
:104B0000FBF7E1FB1E99FBF7DEFB1299FBF720FC9C
:104B100021990C90086022981199006818900690CD
:104B20001498FBF7D8FB1E9010991398FBF7D3FB52
:104B30001D9008991798FBF7CEFB199007991698C6
:104B4000FBF7C9FB1A9018991598FBF7C4FB1A9943
:104B5000FBF768FB1999FBF765FB1B99FBF7BBFBA0
:104B60001D99FBF7B0FB1E99FBF7ADFB1299FBF704
:104B7000EFFB22990F900860002109AB88006A467C
:104B800017580219D76103AF3F58976206AF3F58D5
:104B900057631F5817642F58D764491C3058C9B23F
:104BA00090650329EAD323B0F0BD000010B586B0AC
:104BB0000C46016800914168019181680291C168C9
:104BC0000391016904914069059002AB01AA69460D
:104BD0000B48FFF7E9FE0A4805AB04AA03A96430B5
:104BE000FFF7E2FE00982060019860600298A060E4
:104BF0000398E060049820610598606106B010BDDC
:104C00000C09002070B564210C48FBF700FB0B4831
:104C100064216430FBF7FBFA0848094C7F2101222C
:104C2000C9059207846106C002C0064B064D2AC022
:104C30004C30846106C002C02AC070BD0C0900203F
:104C4000DF85A43C71CFC7BF9D2F243F30B50446FC
:104C500087B03248FCF752FA0A213048FCF7ECF9E9
:104C60000028F9D12D48FCF7FBF8FBF7F6FC0B21E7
:104C7000C943FBF7ABFBFBF724FD294A294BFBF7A4
:104C800063FC0122FBF7C8FCFBF72FFD60600022EC
:104C900025492648FDF75CFA002225492348FDF7FF
:104CA00079FA2448224D0190286900900FCD103DDB
:104CB00000F0E2FB204800F0A3FA00F0DFF90590D5
:104CC0002878207368786073A878A0731648817874
:104CD000E1720178A17241786172C078207203A8F4
:104CE00015490290886AC96A0090134801911830EA
:104CF0000FC800F0A7FB2146203103A800F06AFB93
:104D000003986061049820610598E0610A481830B2
:104D10008068A06100F0B2F907B030BD4C020020FD
:104D20006666666666660A4084000020EC02002023
:104D3000D802002003000020DC00002010B500286D
:104D400023D0124B0022001F196803E0814203D8D0
:104D50000A4649680029F9D1002A0AD01368841A42
:104D60009C4204D1006818181060104602E05060A0
:104D700000E01860002907D002680B1A934203D1A3
:104D80000B68D21802604968416010BDD400002051
:104D9000F7B51D4F164638680D46009C406AFBF774
:104DA00014FAFBF709FAC117490F0918C908C90015
:104DB000401A2870FBF700FA0F21FBF7A7F93170B2
:104DC00020782A7801090007000F8A4217D131782C
:104DD000814214D13868406AFBF7F7F9FBF7ECF928
:104DE000C117490F0918C908C900401A2870FBF7F4
:104DF000E3F90F21FBF78AF93170009C00E0646849
:104E0000002CDDD1FEBD00004C03002010B559215F
:104E100001700021816041600A220521044800F0F0
:104E2000AFF80B220521024800F0AAF810BD0000DF
:104E30002C010020F8B5254C0746207900260D46A8
:104E4000022802D000280AD031E02148FFF7DEFF17
:104E50001E4A1F48921D511EFFF79AFF2671607867
:104E6000401CC0B260700F281CD16670384600F03C
:104E70003DF8A0700146A3796279154800F096F8D4
:104E8000E070012808D1114A1148921D511EFFF708
:104E90007FFF2878401C2870E078002802D101208C
:104EA00020712E70A2796179094800F03DF82079CF
:104EB000012801D00020F8BD054800F00BF80220C1
:104EC0002071012000F012F80120F8BD7C000020C4
:104ED0002C01002070B50546846803E0A468606872
:104EE000FFF72CFFAC42F9D170BD00000D4900283E
:104EF00015D00A78012A06D0022A07D0032A08D042
:104F0000042A09D00BE0022808D108E0012805D1C5
:104F100005E0042802D102E0032800D008700878D8
:104F2000704700007C00002070B50E460446154610
:104F30001149124800F0A3FC0FE020784B2301092F
:104F40000007CA00000F511A401CC200101AC2B25A
:104F5000C9B20A4800F07CFB6468002CEDD1F00077
:104F6000801BC1B26D1CE800401BC2B24B2303483A
:104F700000F06EFB70BD000084650008B8010020E1
:104F800070B5054614460E460C2000F0E9FA3101D2
:104F90002143017000212C46416000E00C4661680D
:104FA0000029FBD160608460A86070BD70B51546B3
:104FB000826803E094682678167022468242F9D10E
:104FC000027814091207120F012906D0022907D00E
:104FD000032907D0042909D107E0521ED2B205E007
:104FE000521C03E0641EE4B200E0641C2101114382
:104FF000CEB20670082C06D80F2A04D8406805E007
:105000000078864201D1002070BD08464168002921
:10501000F6D1AC4208D19A4206D11A462946034835
:10502000FFF7AEFF012070BD022070BD2C010020F3
:105030007FB510A0006801240390642503A86E4684
:1050400031C6234600223C210B48FCF767FB701C4D
:105050006E4631C601231A463C210748FCF75EFB29
:10506000B01C6E4631C6012302223C210248FCF7E7
:1050700055FB7FBD782000008C020020FEB500208B
:10508000009001900290684600F052F800256E46AC
:10509000AC00254F30593959FBF74EFB01D230593E
:1050A0003851214F30590C373959FBF73BFB01D2AE
:1050B000305938516D1CEDB2032DE9D31A4D1A4EFB
:1050C0000C3529683068FBF7ADF80021C943FBF7C0
:1050D0007DF9044669687068FBF7A4F80021C943AC
:1050E000FBF774F90746A968B068FBF79BF8002145
:1050F000C943FBF76BF9054621460098FBF7E3F837
:10510000009039460198FBF7DEF801902946029895
:10511000FBF7D9F8029000990198FBF7EFFC0349DF
:10512000FBF7D9F8FEBD000094000020E12E654297
:1051300030B585B004467D22D200062103A86D4615
:1051400007C5012303223C211148FCF721FA6846D8
:10515000808940BA00B2FBF775FA0E4D2946FBF77D
:10516000F7F820606846008A40BA00B2FBF76AFA96
:105170002946FBF7EDF860606846C08940BA00B286
:10518000FBF760FA2946FBF7E3F8A06005B030BDF5
:105190008C0200200040884430B585B004460A22C5
:1051A000062103A86D4607C501233B22D1211248E1
:1051B000FCF7EEF96846808940BA00B2FBF742FA84
:1051C0000E4D2946FBF787F820606846C08940BA33
:1051D00000B2FBF737FA2946FBF77DF860606846B6
:1051E000008A40BA00B2FBF72DFA2946FBF773F8A4
:1051F000A06005B030BD00008C020020A1D71F3B8D
:10520000F8B504460B4F0C4E0C4DFFF7C5FF20467A
:1052100000F016F83946E068FBF755F8E0603146D3
:105220002069FBF750F8206129466069FBF74BF8CD
:105230006061F8BDFD9F23BF034025BF76FE6DBCB6
:1052400030B585B004460A22062103A86D4607C57D
:1052500001234322D1211248FCF79AF9684680893C
:1052600040BA00B2FBF7EEF90E4D2946FBF733F8D2
:10527000E0606846C08940BA00B2FBF7E3F929460E
:10528000FBF729F820616846008A40BA00B2FBF7B4
:10529000D9F92946FBF71FF8606105B030BD000061
:1052A0008C020020D6FF793DF0B585B00A20FBF7CF
:1052B00055FF00F075F880216846017301246426CB
:1052C00003AD23466B22D021344802960095019409
:1052D000FCF724FA0027684607730A20029001238E
:1052E0006B22D121009501942C48FCF751F96846B6
:1052F000007B4128F1D16846047301236B22D02141
:105300002648029600950194FCF708FA6846077350
:1053100001236C22D0212148029600950194FCF7CC
:10532000FDF902276846077301231A22D0211B4882
:10533000029600950194FCF7F1F968460473012385
:105340001922D0211548029600950194FCF7E6F940
:1053500018216846017301231B22D0210F480296B1
:1053600000950194FCF7DAF91021684601730123D6
:105370001C22D0210948029600950194FCF7CEF931
:105380006846077301231D22D02104480296009528
:105390000194FCF7C3F905B0F0BD00008C020020B9
:1053A0007FB5002069460A250873012403A86E46CC
:1053B00031C601237522D1210548FCF7E9F80A20FE
:1053C000FBF7CCFE6846007B1228EFD17FBD0000C2
:1053D0008C02002070B5174B0668174C174D184A01
:1053E0009E420BDA964209D24668A64201D90126AE
:1053F0000E704668AE4201DD02260E7046689E427F
:105400000BDA964209D20668A64201D904240C7030
:105410000468AC4201DD03240C7004689C4208DA85
:10542000944206D24068984203DA904201D20020AA
:10543000087070BD0000E040000020C10000204165
:105440000000E0C0F8B50D460121C90748401446E8
:105450001146089EFBF752FB064F3946FAF73BFF11
:10546000706021462846FBF749FB3946FAF733FFBF
:105470003060F8BDE12E65420FB410B5079869465B
:10548000097A0278134C91420FD16946497A4278E1
:1054900091420AD16946897A8078814205D10120FA
:1054A00060700C210C48FDF7BBFA607801280CD124
:1054B000A078401CC0B2A0701E2806D10020A070A9
:1054C00060700C210448FDF7D3FA10BC08BC04B08E
:1054D00018470000000000200C0300208EB024219B
:1054E00005A8FAF794FEFCF715FAFDF7FFFDFF207B
:1054F000F530FBF733FEFDF7ADFCFDF775FCFDF76E
:10550000C5FCFDF7EFFCFDF731FDFDF749FD0C2172
:105510001048FDF785FAFFF78BFDFFF7C5FE0E4833
:1055200000F054F8FFF76EFB0C48FDF78FF80C21E4
:105530000848FDF79DFA09AC05A8FFF787FB142280
:1055400021466846FAF74AFE05A80FC800F0E2FFB8
:10555000F2E700000C030020B80100204C030020FB
:10556000F0B50B30C108C900144F0026144A0FE0F3
:1055700003688B420BD38B4205D95C1A43184568EC
:1055800030C3083B00E04368136002C004E0021D22
:1055900010680028ECD13046002803D13868002874
:1055A00001D00020F0BD064A06481060064A121AD3
:1055B000D208D20044C001203860D7E7D8000020CC
:1055C000D4000020DC090020D80B002010B50446D0
:1055D000074B084A084900F095F9204600F058FDAD
:1055E0000021204600F064FD204600F007F810BDC1
:1055F0009964000855610008F473000810B501684B
:105600000A7C3821095C406B5143C900FAF7FFFD61
:1056100010BDFFB51C46101981B0401C80B20A9F16
:1056200000900819401C83B21546101B82B20E462A
:10563000081B81B2019800F007F9002806D0234624
:105640002A4631460097019800F002FA05B0F0BDF5
:10565000F8B504466030007C1F4615460E4600280B
:1056600006D0012809D002280CD0032815D10FE05C
:10567000E16D20468847401908E0E16D20468847E3
:10568000301A09E0E16D20468847281A85B204E007
:10569000E16D20468847801986B22246284640326E
:1056A0009684D08439460025204600F0A6FB0100F0
:1056B00003D0204600F0D0FA85B22846F8BD7FB569
:1056C0000546803082B0007B0A99002836D06846B3
:1056D000808A002832D0012811D9022902D003295A
:1056E00007D00CE06A469289101A6A46401C9081E5
:1056F00005E06A46128A101A6A46401C1082CE07DC
:105700002C46F60F4034002E1AD068462189808935
:10571000814213D86189814210D9E389A28905A900
:1057200004A800F077F9002808D00096286B846858
:105730006846838A028A81892846A04706B070BDE0
:105740006846A189008A8142F8D8E1898142F5D969
:105750006389228905A903A8E3E70000FFB51C4679
:1057600085B000230E980293A14201D90B1B00E0E3
:10577000631A9DB2824201D9131A00E0831A9BB2C8
:10578000AB420AD9012602962E461D4633460E46E6
:1057900011463246264604463046A14205D90E46F9
:1057A000214634461646024630466E08904201D9DC
:1057B000012001E00020C043019013480092844280
:1057C00001D1641EA4B2D8B20F46039015E002982E
:1057D000002816D000993A46059800F017F803986B
:1057E000301A06B2002E06DA00990198081880B225
:1057F0000090701906B27F1CBFB2A742E7D909B06A
:10580000F0BD3946009AE7E7FFFF000038B50446CF
:105810004034A38993420DD8E38993420AD923895E
:105820008B4207D863898B4204D90023009301235C
:10583000FFF745FF38BD000010B5024C446000F092
:10584000A9F910BD1561000870B5044640341E4624
:105850000D46E189A089049B00F026FB002805D0B5
:105860006189208933462A4600F01EFB70BD10B5C1
:10587000044600F0A6FB204600F012FC10BD10B557
:105880000446806D884207D020467430A16500F040
:1058900063FB204600F052F810BD00000149C165CD
:1058A000704700000D5C00080022014640310A826A
:1058B0008A82034A4A82CA82016B4968084700000B
:1058C000FFFF0000F8B50025069F04468565C3620A
:1058D0004163203002764576264660362046803089
:1058E0007573457401218174C1742763396820463A
:1058F00088472046FFF7D8FF2046FFF7CFFF3574D3
:10590000F8BD00007CB500930C4613460546084AD6
:10591000084900F0D5FB01A800F018FB01466846D5
:1059200000940279044B2846FFF7CCFF7CBD0000B1
:105930007562000895630008C15E000810B5816DAE
:10594000002917D00146803101228A568A7302232A
:10595000CB56CB734C7B002C0CD0012C0BD07E246F
:105960000457002008562418944200DD8C738342AB
:1059700000DDC87310BD03200856824200DA887328
:1059800004200856F3E7002B05D0012B05D0022B8D
:1059900006D0801802E0401800E0801A80B27047FC
:1059A000401AFBE7002B05D0012B05D0022B06D0B7
:1059B000401A02E0801800E0401880B27047801A58
:1059C000FBE738B5044605464034E08A0090638A18
:1059D000A28A218A2846FFF737FF8035002816D093
:1059E000012028732189208A814200D22081618987
:1059F000608A814200D96081A189A08A814200D257
:105A0000A081E189E08A814200D9E08138BD00208F
:105A1000287338BD30B504880D882D19ADB2AC425D
:105A200005D99C4202D25D1EADB200E014469C42F4
:105A300001D2954201D8002030BD944200D21446D4
:105A40009D4200D91D460480281B0880012030BDDE
:105A5000FFB50120C01A06B25842400083B00127AA
:105A600000B200251C4602900FE0002E07DB0298D2
:105A7000641E801C00B202903018A4B206B26D1CE5
:105A8000BF1C3FB2F019ADB206B20C990598019156
:105A9000009022462946049B039800F004F8A54292
:105AA000E3D307B0F0BDFFB589B012981546401B8F
:105AB0000E460790981903901298139F801B06902A
:105AC0005819F9071C46029000290DD0079882B298
:105AD000039881B20998FFF799FE069882B202985E
