:020000040800F2
:10000000E00F0020C50000083D2E00082B29000845
:1000100000000000000000000000000000000000E0
:100020000000000000000000000000009F2E0008FB
:1000300000000000000000003F2E0008A12E000874
:10004000D700000800000000D7000008D700000813
:10005000D7000008D7000008D7000008D700000824
:1000600000000000D7000008D7000008D7000008F3
:10007000D7000008D7000008D700000800000000E3
:10008000D700000800000000000000001D2F00083D
:1000900000000000D7000008D7000008D7000008C3
:1000A00000000000D700000800000000D700000892
:1000B0000348854600F09EFC004800475D54000858
:1000C000E00F00200448804704480047FEE7FEE7B1
:1000D000FEE7FEE7FEE7FEE7192F0008B100000883
:1000E00030B50B46014600202022012409E00D46D0
:1000F000D5409D4205D31D469540491B2546954058
:1001000040191546521E002DF1DC30BD70B500249B
:100110002546002801DA01244042002901DA0125A0
:100120004942FFF7DDFFAC4200D04042002C00D036
:10013000494270BDF0B51FB40646002082B00546A6
:100140004024019100901BE0019922460F46304661
:1001500000F020F8049A059B801A994110D31046AC
:100160001946224600F0D6FA361A8F4101972246E8
:1001700001200021009F00F0CDFA38184D41009079
:100180002046641E0028DFDC019B00982946324689
:1001900007B0F0BD10B5202A04DB0846203AD04055
:1001A000002110BD0B46D340D0402024A21A91401C
:1001B0000843194610BD00000549064A0868504327
:1001C000054A801808604008704701490860704778
:1001D000C80000206D4EC64139300000D2B201E0A7
:1001E0000270401C491EFBD270470022F6E710B592
:1001F00013460A4604461946FFF7F0FF204610BD95
:10020000F8B502464A40D40F42004B0052085B0842
:100210009A4202D20246084611464A0023D0C30D34
:100220004A00DDB2120EAD1A202D35DA4902012640
:10023000490AF6058A19002C00D0524220214F1B92
:100240001146B9402A411018C20D9A4221D0002C03
:1002500017D0012D08DCDA05801AD20F8019D207D9
:10026000DBB200F082FAF8BDDA05801A0123400003
:100270001B06C01880185A428018CA0F1043490044
:1002800007E04908C2071143DA05801A80194008BF
:10029000801800F062FAF8BD61000122511A001BBB
:1002A000F7E70122D2075140AAE70122D2075040C6
:1002B000A6E7024670B54A40D30FDB0740002DD0B9
:1002C0004A002AD0010E140E000212020919400A37
:1002D000520A8418E50104465443000A120A2E0407
:1002E0005043A4194219200CC543AA18120C012529
:1002F000AD03521C521912047F39240400D0521C41
:10030000104301D44000491EC2B20C06C009201897
:10031000401C4008802A02D003E0002070BD400845
:100320004000002900DA0020184370BD70B5024675
:100330004A40D50F40004A00ED0740085208002807
:1003400014D0002A12D0C40DD30D41020120C005E3
:100350005202490A520AE41A091812187D349142CD
:1003600001D3641C00E04900002C01DA002070BDBC
:100370000023914201D3891A034340084900002811
:10038000F7D100290AD0914202D10121C90705E025
:10039000914201D2012101E00121C943E005C018C9
:1003A000401900F0DAF970BD420005D04200120E8B
:1003B00052428A4201DB00207047C9050818704785
:1003C000F0B507460846584087B0C00F0490480073
:1003D0000E46590040084908BC1A884105D23846E3
:1003E00031461E4617460B46024658004008104349
:1003F0004CD0300D039040055900400D490D05903B
:10040000401A0290402872DA18030121000B0905F6
:100410000843019004980092002805D001995242A7
:100420000020884100920190029840210A1A019907
:10043000009800F06FF905460C466B4607CB00F0BC
:1004400079F9C0197141039A0E0D0023D717564050
:100450001A467A40164344D0049A002A2DD0029AB4
:10046000012A039A15DC1205C01A914101263605AE
:10047000001C7141D20F059ED20700930192029693
:100480002A46234600F0B7F907B0F0BD384631469A
:10049000FAE71605224A0F46B218C01AB7410121E1
:1004A0000905001C4F4100187F4111461818794179
:1004B000E20F10436D19644113E0E2076D08154324
:1004C0006408C2071443039A01261205C01A914119
:1004D0003605001C7141CE07400830434908C0185A
:1004E00051412A46234600F079F9CDE7FFE7049809
:1004F00001224000C117121A00238B410498314693
:10050000C417381AA141EEE730B40124E407634070
:1005100030BC55E730B40124E407614030BC4FE7FC
:100520000000E0FFF0B51FB488B00B9909980024D3
:1005300048400999C00F490049080991C0070B9923
:100540000090490049080B9109990898A64608436C
:100550001CD00B990A98084318D009980124400030
:10056000420D4800410D099824050003000B20436B
:1005700009900B980003000B20430B9050181C4966
:100580004018002201901446104605E00020014664
:100590000DB0F0BD032801DA034600E003239C46BA
:1005A000C11A0AAE0AE05F0008ADED5B4F00F75BD1
:1005B0007D430027AA187C41491C5B1E6145F2DD82
:1005C000410004AB5A522104120C0A43240C401C73
:1005D0000828DFDB01980290009970460191009095
:1005E000059B049A0799069800F005F9D0E70000EA
:1005F0000DFCFFFF70B54B005B0803430BD04B00B5
:100600005C0D002633466542B341D417AD1AA341B1
:1006100002DB0020014670BD12053018514170BD4B
:10062000C217C10F504010B54018CA0796230021C9
:1006300000F09BF810BD10B500229623114600F083
:1006400094F810BDC20F410040020123400ADB05AF
:10065000D207090EC0187F2901DA002070479629B9
:1006600003DC9623591AC84001E096398840002AD5
:10067000F4D040427047410040020122400AD205B6
:10068000090E80187F2901DA00207047962903DCC3
:100690009622511AC8407047963988407047C20F59
:1006A000D207400040080BD0C10D0723DB01C91859
:1006B00040020905400A1143C20840071143704730
:1006C000002001467047CB0FDB07490010B54908F1
:1006D00002460A4307D00A0D07240903E401090B67
:1006E000121B002A01DC002010BDC900440F0C437E
:1006F000C100E018D205801800F02FF810BD0000EE
:100700000122D207002800DB101A002900DB511A51
:100710008842704710B5202A04DB0146203A9140F8
:10072000002010BD914020239C1A0346E34019434A
:10073000904010BD10B5202A06DBCB170846203AA2
:100740001041C1170B4306E00B461341D040202453
:10075000A21A91400843194610BD002904DA401C32
:10076000490001D140084000704770B40024050CD6
:1007700005D11024000402D1002921D01124050E36
:1007800001D100020834050F01D10001241D850F9D
:1007900001D18000A41C002801DB4000641C00295A
:1007A00008D020252E1B0D46F540A14000D0012188
:1007B0002943084301061B1B000ADB1D02D500204C
:1007C00070BC7047DB05181880180029F8DA401C47
:1007D0004900F5D170BC40084000704710B5002BAF
:1007E00008DA0024401C614192185B411A4301D190
:1007F0004008400010BDF0B51FB482B005460C00A3
:1008000003D0084602F008FD02E002F005FD2030AA
:100810000246009021462846FFF77CFF049B059A7C
:1008200004460F4618431143084314D0184610439A
:100830001BD0009840210A1A18460599FFF7AAFC18
:1008400005460E46009A05990498FFF763FF084392
:1008500005D0012004E02046394607B0F0BD002055
:10086000C11705430E432C43374300990E98630587
:10087000401A7905E40A00220C43FD0A0A3002D529
:1008800000200146E9E70105101969410C9C0D9D06
:1008900000196941FFF7A2FFDFE70000F0B50C4641
:1008A0005C4085B0E40FE40703944C000026640824
:1008B00059009446490802460296224321D06246D6
:1008C0000A431ED06200570D4A000E032303550D44
:1008D000012402462C492405781B1B0B360B4018BB
:1008E00023432643614600901C46501AB44103D36B
:1008F0000098401C009002E0921800985B4100288C
:1009000003DA0020014605B0F0BD002001210905F1
:100910000746864611E064461D46141BB54106D3C2
:100920006546521BB341744607430C43A646CD07A8
:1009300040084908284392185B4105460D43EAD117
:100940001046184313D06046194650407140084382
:1009500006D06046101AB34106D20122002306E0F9
:1009600000220123DB0702E00122D243531000984A
:1009700074460105381C6141029C039D00196941C0
:10098000FFF72CFFBFE70000FD0300004A0009034A
:100990000123090B1B0519430A4B10B5520D9A424E
:1009A00002DA0020014610BD064B34339A4203DCC4
:1009B0009A1AFFF7EFFB10BD034BD218FFF7AAFE00
:1009C00010BD0000FF030000CDFBFFFF10B50029A4
:1009D00004DB0124E40740428C412146002B04DB68
:1009E0001C460123DB075242A341994200D19042A9
:1009F00010BD0000064C0125064E05E0E36807CC5B
:100A00002B430C3C98471034B442F7D3FFF754FB08
:100A1000007E0008207E0008F8B504460020009003
:100A2000206881688907890F012905D10168C907F4
:100A300031D1C16809042ED48168184A10261140AA
:100A4000012500291AD1816829438160154814497C
:100A50000068FFF745FB00E0401E00900028FBD136
:100A600000F030FC074611E000F02CFCC01B02280F
:100A70000CD920680068C043C00707D0A06B304382
:100A8000A063E06B2843E0630120F8BD20680068A4
:100A9000C043C007E8D10020F8BD00001700008067
:100AA00040420F009C00002070470000F3B581B069
:100AB000054602984000010E45480FD16900090E15
:100AC00006D001224349D205954203DB0846FEBD0C
:100AD0000020FEBD854201D33F48FEBD0026029F97
:100AE0002C46854202D30121C9074C40FF20C00596
:100AF000C74201D30002474039462046FFF700FEB7
:100B000003D2384627460446022639462046FFF7D8
:100B10000DFC32490446884214DD3149FFF7C9FB18
:100B20007F21C905FFF7BDFB2146FFF769FB07469B
:100B30002C492046FFF764FB01463846FFF7F6FBD9
:100B40000446761CFF21C905C84201D3090248406A
:100B50002549884201DA204622E021460846FFF76F
:100B6000A8FB22490090FFF7A4FB2149FFF748FBAF
:100B70000099FFF79EFB07461E490098FFF740FBD0
:100B80000099FFF796FB1C49FFF73AFB01463846F0
:100B9000FFF7CCFB2146FFF78CFB2146FFF730FB2C
:100BA000012E02DD0121C9074840144AB100515805
:100BB000FFF726FB064C0299A14203D301461048D9
:100BC000FFF76FFBA54288D30121C9074840FEBD4E
:100BD00000008080DB0FC93FDB0FC9BFA330893E17
:100BE000AF673B3FD7B3DD3FF304B539AE5338BFF2
:100BF000A854B8BF3C1298407E3F8A40D47D00087C
:100C0000DB0F494070B51C49FFF753FB7D21C90537
:100C1000FFF7F6FA0446FFF715FDFF21C905CC42A0
:100C200000D3401EFFF7FCFC2146FFF73EFB0921E5
:100C3000FFF7BAFB0446FFF71EFDC505ED0D28467C
:100C4000FFF7F9FC2146FFF730FB04460B48A900EB
:100C50004658081841682046FFF72BFB05467F20C1
:100C60002146C005FFF71DFB3146FFF722FB294651
:100C7000FFF7C6FA70BD000083F9223E64750008D4
:100C800070B504461949FFF714FB0546FFF7DAFC77
:100C9000FF21C905CC4200D3401EFFF7C1FC294605
:100CA000FFF703FB0921FFF77FFB0446FFF7E3FC97
:100CB000C505ED0D2846FFF7BEFC2146FFF7F5FA06
:100CC00004460B48A9004658081841682046FFF71B
:100CD000F0FA05467F202146C005FFF7E2FA3146CB
:100CE000FFF7E7FA2946FFF78BFA70BD83F9223E3A
:100CF00064750008F8B50025044620340095227D6F
:100D0000012A39D00122227503689E68760767D4CC
:100D1000384F4E68BE424DD09E6A0F78BA40164397
:100D20009E620123C26A1B079A421FD0012A1DD06E
:100D3000022A1BD0032A19D0042A17D0052A15D05D
:100D4000062A13D0072A11D002688B6856697607E5
:100D5000760FB3420AD05369DB08DB0053610068A9
:100D600042690B7A5B075B0F1A4342610A68102ADB
:100D700004D0112A02D038E00220F8BD1E48836852
:100D8000102A07D0012292051343836008681028B7
:100D900003D02AE00122D205F6E719481749006876
:100DA000FFF79EF90A21484300E0401E009000280A
:100DB000FBD11AE0986A0E78B240904398620968B5
:100DC000102901D0112910D10B488268102904D0B4
:100DD000012189058A43826007E00121C905F9E7FD
:100DE000816B202211438163012500202075284654
:100DF000F8BD0000011000000027014040420F0034
:100E00009C0000200068006C70470000F8B50025C9
:100E10000446002805D0A06B26462036002802D0C4
:100E200007E00120F8BD0020E0633075204600F0A7
:100E3000A7F8A06B1022104270D120688168490782
:100E40006CD4A16B1301994302231943A1638168F8
:100E50008907890F012905D10168C9070FD1C16828
:100E600009040CD4C16818239943A3681943C160CD
:100E70002068016963688900890819430161206855
:100E8000C1683D4B1940C160207E617E8003C9036B
:100E90000843A17E4B031843A36A012B02D0012310
:100EA0001B0300E000231843E36818432369022B67
:100EB00009D0002318433379E67E5B0018430123F1
:100EC000012E02D00AE00423F4E7002927D0A16B09
:100ED00020263143A163E16B1943E163E1690E46CA
:100EE000FF3EC23E02D0266A314308432168CE68E5
:100EF0000643CE600126E16A3607B14213D00129CC
:100F000011D002290FD003290DD004290BD00529B7
:100F100009D0062907D0072905D010E028E00121D3
:100F200009040843DAE721684E69F608F6004E61C5
:100F300021684E69A78D7F077F0F3E434E61216870
:100F4000C9680E4E3140814207D10020E063A06B9A
:100F500080088000401CA06308E0A06B0221884349
:100F60001043A063E06B1843E06301252846F8BDF9
:100F7000A06B1043A063F8E71902FEFFE7FF3F8371
:100F800010B586B0044614216846FFF72EF91049C3
:100F90002068884219D10F48826941150A4382614D
:100FA00082690A400592426909020A434261406926
:100FB000084005902020009003200190002002901E
:100FC00009206946C00600F0ABF806B010BD00006D
:100FD0000024014000100240F8B50446406925464F
:100FE00020350E4608280BD02068C068C00709D0FD
:100FF000A06B20210843A063002028750120F8BDC4
:10100000082700E00C2700F05DF9009015E0701C47
:1010100013D0002E05D000F055F90099401AB042C7
:101020000BD920680068384207D1A06B042108431F
:10103000A063002028750320F8BD206800683842AE
:10104000E5D0A06B012149020843A0632068C16874
:1010500009058A0F0C21002A1AD1A27E002A17D175
:101060000268120714D5826853070122002B08DB9F
:1010700043688B434360A06B130298431043A06303
:1010800006E0A06B20231843A063E06B1043E063ED
:10109000207E002801D1206801600020F8BD0000FA
:1010A00070B50446216800208968490721D4254687
:1010B0002035297D01291CD001212975617E012956
:1010C00004D02046FFF7A8FC002811D1A16B0A4AE2
:1010D0001140FF2201321143A1630021E163297510
:1010E00022681C21116021688A6804231A438A60DF
:1010F00070BD022070BD0000FEF1FFFF70B5044618
:1011000000F0E0F80546601C02D00448007824187E
:1011100000F0D8F8401BA042FAD370BD9000002028
:10112000F8B5002303240125BAE02E469E40B446BC
:1011300032407CD00E79B607B60F012E01D0022EB8
:1011400017D186682746B6465E00B74000967646B9
:10115000BE43B646CF68009EB740764637438760A9
:1011600046686746BE430F79FF06FF0F9F4037432F
:1011700047600E79F643B6070ED0C6682746B446D8
:101180005E00B646B7406646BE43B4468F687646B4
:10119000B74066463743C7600E79B607B60F022ED2
:1011A00014D1DE08B60036180096366A5F07B446DA
:1011B000FE0E0F27B646B7406646BE43B4460F69DB
:1011C0007646B74066463743009E37620668274634
:1011D000B4465E00B646B7406646BE430F79B44695
:1011E000BF07BF0F7646B7406646374307604E6875
:1011F000B603B60F53D02D4FBE692E43BE61BE69F4
:101200009F08F607F60F2A4EBF00BE190096B66873
:101210000F27B4469E07360FB646B7406646BE4314
:101220000927FF06B446B84202D1002710E036E095
:10123000204FB84201D101270AE01F4FB84201D127
:10124000022705E01D4FB84201D1032700E0052722
:101250007646B74066463743009EB760184E3668FC
:101260004F689643FF0300D51643154F3E607E68D6
:101270004F689643BF0300D51643114F7E60BE688A
:101280004F689643FF0200D516430D4FBE60FE68BF
:101290004F689643BF0200D51643094AD6605B1CCF
:1012A0000A681646DE4000D03FE7F8BD0010024055
:1012B000000001400004004800080048000C0048FD
:1012C0000004014001488068704700009000002041
:1012D00070B5024640325378202B1CD11378012B75
:1012E00019D00123137024245470046825689D4389
:1012F0002560046825681E03B543256004682568D9
:101300000D4325600068016819430160202050707A
:101310000020107070BD022070BD70B502464032D2
:101320005378202B1BD11378012B18D00124147073
:101330002423537003681D68A5431D6005682B684E
:101340000F263602B3430902194329600068016879
:1013500021430160202050700020107070BD0220D9
:1013600070BD000070B5040006D025464035687891
:101370000026002802D005E0012070BD2E70204616
:1013800000F022FA242068702068016849084900AA
:1013900001600F216068090688432168086121689F
:1013A0008A680120C00382438A60E1680129A1683C
:1013B00008D021229202114322689160E16802293B
:1013C00002D005E00143F7E701212268C90251601C
:1013D00021684A680F4B1A434A602168CA688243F1
:1013E000CA60616920690843A1690902084321684C
:1013F000C860216AE06908432168086020680168C4
:101400000122114301606664202068702663AE707B
:10141000002070BD00800002FFB50546044640353F
:10142000687881B0202878D12878012875D00120EB
:101430002870FFF747FF0746012200901923D103C8
:10144000204601F03DFB00283CD12120687010208F
:10145000A8700026666403986062049860856663DD
:10146000618D2F48FF2903D9FF22228500903BE0A0
:10147000618D218500903DE02046029901F00CFB32
:1014800016E001F06AFB00281CD1606A2168007830
:101490008862606A401C6062608D401E6085208D9D
:1014A000401E80B22085618D002901D000280CD01B
:1014B000608D0A9900283A462046E2D101F027FBC8
:1014C00000281CD0012005B0F0BD0097002280212B
:1014D00020460A9B01F0F4FA0028F3D1608DFF2822
:1014E00005D9FF222285009601231B06C4E7608DE3
:1014F00020850096208D0123C2B25B06BCE72168DF
:101500002020C86121684A68064B1A404A6068700A
:10151000AE702E700020D6E7FFE70220D3E7000070
:101520000020008000E800FEFFB505460446403577
:10153000687883B0202875D10C98002814D00D98B5
:10154000002811D0287801286CD001202870FFF7DE
:10155000B9FE0746012200901923D103204601F06D
:10156000AFFA002874D103E00120400260646FE00C
:10157000222068704020A870002666640C98606283
:101580000D98608566630E980090019704A90EC9B6
:10159000204601F021FA002801D02E7058E0618D1C
:1015A0003448FF2905D9FF22228501231B0600901C
:1015B00006E0618D21850090208D0123C2B25B067B
:1015C0002046049901F068FA009700220421204681
:1015D0000E9B01F075FA00283AD12068406A616AD2
:1015E0000870606A401C6062208D401E81B22185B7
:1015F000608D401E6085608D00281FD000291DD1A0
:1016000000970022802120460E9B01F059FA002805
:101610001ED1608DFF2806D9FF22228501231B06DB
:10162000009607E024E0608D20850096208D012340
:10163000C2B25B062046049901F02EFA608D0028A4
:10164000C2D13A4620460E9901F061FA002802D034
:10165000012007B0F0BD20682021C16120684268E8
:10166000054B1A4042606970AE702E700020F0E7A2
:101670000220EEE70024008000E800FEFFB50546EA
:1016800004464035687883B0202872D10C98002831
:1016900014D00D98002811D02878012869D0012095
:1016A0002870FFF70FFE0746012200901923D1038F
:1016B000204601F005FA002871D103E00120400224
:1016C00060646CE0212068704020A8700026666489
:1016D0000C9860620D98608566630E980090019783
:1016E00004A90EC9204601F0A7F9002801D02E70E8
:1016F00055E0608DFF2805D9FF22228501231B06B6
:10170000009606E0608D20850096208D0123C2B2F0
:101710005B062046049901F0BFF93A4620460E992F
:1017200001F01BFA00283AD1606A216800788862CB
:10173000606A401C6062608D401E6085208D401E86
:1017400080B22085618D00291FD000281DD100970F
:101750000022802120460E9B01F0B2F900281ED104
:10176000608DFF2806D9FF22228501231B060096E3
:1017700007E024E0608D20850096208D0123C2B211
:101780005B062046049901F087F9608D0028C4D1DA
:101790003A4620460E9901F0BAF9002802D00120FD
:1017A00007B0F0BD20682021C16120684268054B68
:1017B0001A4042606970AE702E700020F0E702207F
:1017C000EEE7000000E800FE10B586B004461421E4
:1017D0006846FEF70AFD1249206888421DD1114C67
:1017E00061690120800401436161616901400591E3
:1017F000C020009012200121019003200291049149
:10180000039069460848FFF78BFCE1690120400519
:101810000143E161E1690140059106B010BD00009E
:101820000054004000100240000400480248816853
:1018300002788918816070479000002010B5064832
:101840000168102211430160002000F007F800F049
:1018500027F8002010BD00000020024070B50446AB
:101860000D4D7D202978C000FEF73AFC01460B485B
:101870000068FEF735FC00F0D3FC002809D1042CE9
:1018800007D200222146401E00F02AF800206C609A
:1018900070BD012070BD0000900000209C00002061
:1018A00008B50848816901221143816181691140AD
:1018B0000091C26901040A43C261C06908400090F6
:1018C00008BD000000100240002805DBC106C90E5B
:1018D00001208840014908607047000000E100E0F5
:1018E00010B501F0D5FC10BDF8B505460068354CC3
:1018F000C00352D5E0690026C00007D4E169200486
:101900000143E161E1690140012600912E4801682F
:10191000C90510D40168821511430160FFF7D2FC9C
:10192000074604E0FFF7CEFCC01B642824D82648F5
:101930000068C005F6D5206A03273F02384020D052
:101940006968394081421CD0206A226AB84301216B
:1019500009040A432262226A8A4322622062C00783
:101960000FD0FFF7AFFC009008E0FFF7ABFC009949
:10197000411A1648814201D90320F8BD206A800728
:10198000F3D5206A6968B84308432062002E04D06A
:10199000E169012000078143E1612878C00705D093
:1019A000206BA9688008800008432063287880069F
:1019B00005D5206B10218843E96808432063002087
:1019C000F8BD0000001002400070004088130000C5
:1019D000F8B50F46060059D03A4D2868C007C00F29
:1019E000B84209D228684008400038432860286877
:1019F000C007C00FB84249D13068334C81070CD5BD
:101A0000400704D5606807210902084360606068E8
:101A1000F0218843B168084360603078C00726D061
:101A2000706801280ED0216802280ED0890700298D
:101A30002CDA61688908890001436160FFF742FC84
:101A400000900DE021688903F1E78901EFE7FFF7D6
:101A500039FC0099411A1D48814201D90320F8BD83
:101A600060680C210840716889008842EFD12868BD
:101A7000C007C00FB8420BD928684008400038435F
:101A800028602868C007C00FB84201D00120F8BD07
:101A90003078400706D56068072109028843F1685D
:101AA0000843606000F018F86168094A0906090FE8
:101AB000515CC840074908600020FFF7CFFE0020B6
:101AC000F8BD000000200240001002408813000012
:101AD0001C6500089C00002010B514A30FCB88B033
:101AE0006C460FC415A30FCB0FC4184A51680C20C5
:101AF0000B4603401648042B16D0082B14D18B023A
:101B00001B0F6C46E45CD26A04AB1207120F9A5C9E
:101B1000C90305D500231946FEF70CFB214601E059
:101B200020460C4901F08FFB08B010BD02030405EC
:101B3000060708090A0B0C0D0E0F10100102030412
:101B400005060708090A0B0C0D0E0F1000100240C5
:101B500000127A0000093D00FEB5040070D0207824
:101B6000DC4DC0074AD068680007800F012807D005
:101B700068680007800F022809D16868C00306D58D
:101B8000286880033AD560680028E7D036E06168AD
:101B9000012914D001208004002901D0052914D086
:101BA0002A68012109048A432A602968814329603F
:101BB0006068002816D0FFF785FB06460EE028680F
:101BC0000121090408432860F2E7296801432960DC
:101BD000F5E7FFF777FB801B64286ED82868800341
:101BE000F7D50BE0FFF76EFB064604E0FFF76AFB54
:101BF000801B6428F1D828688003F7D42078012658
:101C0000800700283CDA68680007800F07D0686802
:101C10000007800F022809D16868C00306D428682D
:101C2000800716D5E06801280AD112E0E068002894
:101C3000286816D030432860FFF744FB074605E0CC
:101C400043E1FFF73FFBC01B0228C6D82868800786
:101C5000F7D52868F82188432169C900084328601E
:101C60000EE0400840002860FFF72CFB074604E028
:101C7000FFF728FBC01B0228AFD828688007F7D4DD
:101C80002078000722D5E0690028686A0ED030432A
:101C90006862FFF717FB074604E0FFF713FBC01B62
:101CA00002289AD8686A8007F7D50FE040084000FC
:101CB0006862FFF707FB074605E09DE0FFF702FBC0
:101CC000C01B022889D8686A8007F7D420780427C7
:101CD0004007002860DA00200190E869C00008D4BD
:101CE000E969B8060143E961E96901400120009111
:101CF000019079480168C90511D401688215114322
:101D00000160FFF7DFFA009005E0FFF7DBFA0099CA
:101D1000401A642870D870480068C005F5D5A068DE
:101D200001280AD0002801D0052810D0286A4008D0
:101D300040002862286AB84301E0286A30432862DC
:101D4000A068002812D0FFF7BDFA00900AE0286AC8
:101D500038432862F1E7FFF7B5FA0099411A5F4866
:101D6000814249D8286A8007F5D50DE0FFF7AAFA25
:101D7000009006E0FFF7A6FA0099411A5748814201
:101D80003AD8286A8007F5D40198002804D0E96978
:101D9000012000078143E9612078C00635D56069DC
:101DA00001280CD0401D686B23D038436863686BF2
:101DB000400840006863FFF785FA064622E0686B3A
:101DC00038436863686B30436863FFF77BFA064605
:101DD00004E0FFF777FA801B02285BD8686B800766
:101DE000F7D5686BF8218843A169C9000843686387
:101DF0000BE0B8436863F4E74CE0FFF763FA801B3D
:101E0000022847D8686B8007F7D4206A00285ED084
:101E100069680907890F022942D00126360602287F
:101E2000286805D0B0432860FFF74CFA044633E039
:101E3000B0432860FFF746FA074604E0FFF742FA8E
:101E4000C01B022826D828688001F7D4E86AE16A16
:101E5000000900010843E862616AA06A08436968F2
:101E60003D2212049143084368602868304328608B
:101E7000FFF728FA044604E0FFF724FA001B0228C3
:101E800008D828688001F7D521E0FFF71BFA001B6E
:101E9000022801D90320FEBD28688001F5D416E090
:101EA0000128F8D06868E96A01221204636A0240D6
:101EB0009A420AD10907E26A090F914205D10F211E
:101EC00089040840A16A884201D00120FEBD00209B
:101ED000FEBD0000001002400070004088130000AA
:101EE00010B500680B464068C021C943014000029C
:101EF000000ECC04D870E40E5C708C06A40E0904AD
:101F0000490F9C701970002A0AD100F099FFD8700F
:101F1000587800F095FF5870987800F091FF98700D
:101F2000002010BD30B50B460168896A5960016810
:101F300009694904490C9960006804680F48214602
:101F4000014088024D04800E18706D0E49065D70C8
:101F5000490E99706102490E40242140D970002A2F
:101F60000AD100F06DFF1870587800F069FF5870C2
:101F7000987800F065FF9870002030BD7F7F7F006B
:101F800070B5040003D0607F002802D006E0012075
:101F900070BD00202077204600F04CF802206077CA
:101FA0002168CA204862216853204862204600F018
:101FB0005AFFFF250426002824D1206881681C4A86
:101FC00011408160216888686268636910432269F2
:101FD0001A43104388602168E0680861206801693D
:101FE00022891204114301612068C1688022914353
:101FF000C16020688068800608D4204600F0F6F8AA
:10200000002803D0206845626677C0E72068016C2D
:1020100001229204914301642068016CA26911437A
:1020200001642068456201206077002070BD0000D7
:10203000BFFF8FFF00680549884205D10448016A47
:102040000122D203114301627047000000280040C2
:1020500000100240F8B50446007F0B4601280FD05F
:102060000120207702206077002A0BD0D8789D7855
:10207000000405435878097800024903084317E033
:102080000220F8BD5878C10603D5EF2108400A3078
:102090005870D87800F0DCFE0504587800F0D8FEBF
:1020A00000020543987800F0D3FE054318784003FA
:1020B00005432168CA2048622168532048622046AF
:1020C00000F0D1FE0026FF27002811D10F4805405F
:1020D000206845602068C16880229143C160206803
:1020E000806880060BD4204600F080F8002806D0D7
:1020F000206847620420607726770120F8BD2068B9
:1021000047620120607726770020F8BD3FFFFF007F
:10211000F8B50446007F0D46012821D00120207724
:1021200002206077206800278068002A1AD04006C5
:1021300000D4EF702878AE78000406436878E97818
:1021400000020904084306432168CA204862216846
:1021500053204862204600F086FE002834D114E067
:102160000220F8BD400600D4EF70287800F070FE21
:102170000604687800F06CFE00020643A87800F0C0
:1021800067FE0643E8780004DDE71748064020684C
:102190000660206881680122920491438160296968
:1021A000E868084321688A68104388602068C1682D
:1021B00080229143C1602068806880060CD420464C
:1021C00000F014F8002807D02168FF20486204209E
:1021D000607727770120F8BD2168FF204862012041
:1021E000607727770020F8BD7F7F7F0070B50446B9
:1021F0000068C168A0229143C160FFF763F87D26A3
:102200000546F60006E0FFF75DF8401BB04201D935
:10221000032070BD2068C0688006F4D5002070BD22
:10222000094910B5401E884201D9012010BD074C54
:1022300060610321081F01F02BF80020A061072036
:102240002061002010BD0000FFFFFF0000E000E063
:102250007047704730B5034620331A7F012A26D0D5
:1022600001221A770325CA682D02AA438D6800242B
:102270002A430125AD02AA434D6800682A4301257F
:10228000ED02AA430D682A4301252D03AA430D69D7
:102290002A4301256D03AA434D69C9692A430125D3
:1022A000AD03AA430A4342641C77002030BD0220DC
:1022B00030BD0000F0B502462032137F012B1BD049
:1022C000012616770223537705686B68AC68702780
:1022D000BB430F681F436F600068084B984202D0F1
:1022E000074B984204D1802349689C432143816075
:1022F000567700201077F0BD0220F0BD002C014081
:102300000004004070B5040005D025462035687FE4
:10231000002802D006E0012070BD0020287720466A
:1023200000F014F802206877211D206800F0FEFDFF
:1023300001204034A071A877E87720706070A07009
:10234000E070207160716877002070BD08B5104A98
:1023500001681048914207D18269C1140A43826121
:1023600080690840009008BD0B4A9142FBD1C269C8
:1023700089150A43C261C0690022084000901146D5
:102380001320FFF7ADFA1320FFF79EFA08BD0000F7
:10239000002C014000100240002000400146203186
:1023A0004A7F012A01D00120704702224A77026841
:1023B000D36801210B43D3600068084A904202D0E1
:1023C000074A904204D182685207520F062A02D06F
:1023D00002680A430260002070470000002C0140A0
:1023E00000040040F8B5054604462035287F002645
:1023F000012817D00120287702206877226890688A
:102400007727FF23B8431B02984390600868502841
:1024100038D00EDC20284FD006DC00284CD0102805
:102420001ED149E00220F8BD302845D0402817D100
:102430003AE060282ED0702819D001221203801AA9
:102440000FD090420CD1CB684A688968206800F0B0
:10245000B6FD20688168012292031143816000E08B
:10246000012601206877002028773046F8BDCB6828
:102470004A688968206800F0A2FD216888683843AE
:102480008860EEE7CA684968206800F08DFE502138
:10249000206806E0CA684968206800F096FE60215E
:1024A000206800F097FDDCE7CA684968206800F002
:1024B0007BFE40212068F4E7226801461046F0E7E1
:1024C000704770B50446006801690025C943890753
:1024D000002915DBC168C943890711D4E91E0161D0
:1024E00001202077206880698007204602D0FFF70E
:1024F000E7FF04E000F0BEF8204600F049F9257738
:1025000020680169C943490717D4C168C94349070D
:1025100013D40421C9430161022020772068806917
:102520008005800F204602D0FFF7CAFF04E000F0CC
:10253000A1F8204600F02CF9257720680169C943ED
:10254000090716D4C168C943090712D40821C94331
:102550000161042020772068C0698007204602D0EE
:10256000FFF7AEFF04E000F085F8204600F010F918
:10257000257720680169C943C90617D4C168C943D2
:10258000C90613D41021C9430161082020772068AF
:10259000C0698005800F204602D0FFF791FF04E05C
:1025A00000F068F8204600F0F3F82577206801690C
:1025B000C943C90708D1C168C943C90704D1891EE5
:1025C0000161204600F078F920680169C9430906D5
:1025D00009D4C168C943090605D48021C9430161F2
:1025E0002046FFF735FE20680169C943490609D432
:1025F000C168C943490605D44021C9430161204649
:1026000000F092F920680169C943890609D4C168BC
:10261000C943890605D42021C94301612046FFF73B
:1026200018FE70BD10B586B0044614216846FDF74B
:10263000DCFD0E492068884215D10D484269012110
:1026400049040A434261406908400590881100909E
:102650000020022102900390019104910920694613
:10266000C006FEF75DFD06B010BD0000002C014065
:10267000001002407047F8B5064604462036307F09
:1026800000270D4601280ED001203077002A0CD0FB
:10269000042A1BD0082A2FD00C2A3ED00127002064
:1026A00030773846F8BD0220F8BD206800F09AFC6B
:1026B00020688169082211438161206882690421B0
:1026C0008A438261206881692A6912E0206800F0EB
:1026D000C5FC206882690121C9020A438261206821
:1026E00081690122920291438161206881692A698E
:1026F000120211438161D2E7206800F0E9FC2068F2
:10270000C16908221143C1612068C26904218A435A
:10271000C2612068C1692A6912E0206800F014FDD6
:102720002068C1690122D2021143C1612068C269D7
:10273000012189028A43C2612068C1692A691202A3
:102740001143C161ABE770B5040005D025462035C3
:10275000687F002802D006E0012070BD00202877A5
:10276000204600F014F802206877211D206800F050
:10277000DDFB01204034A071A877E87720706070FD
:10278000A070E070207160716877002070BD7047A4
:102790007047000010B504460222203000290AD0FC
:1027A00004290DD02046403008290ED04378012B53
:1027B00010D0012010BD837F012BFAD182770AE06F
:1027C000C37F012BF5D1C27705E00378012BF0D14F
:1027D000027000E042700122206800F0E3FB104923
:1027E0002068884205D00F4A904202D00E4A90429B
:1027F00004D1426C0123DB031A43426420680122A6
:10280000884202D00949884204D181684907490FAA
:10281000062902D0016811430160002010BD0000AC
:10282000002C0140004401400048014000040040E9
:1028300070B504460D460068002200F0B3FB1B4A49
:10284000194B20689110984205D0194B984202D03C
:10285000184B98420AD1036A134207D1036A0B420C
:1028600004D1436C0126F603B34343642068036A32
:10287000134206D1026A0A4203D10168490849009D
:102880000160204620300121002D07D0042D07D003
:102890004034082D06D06170002070BD8177FBE7C1
:1028A000C177F9E72170F7E7002C01401111000012
:1028B0000044014000480140FEB5006817498842C5
:1028C0002AD1174CA068401CA0602078401CC0B2E0
:1028D0002070052820D100201249207008461838A1
:1028E00002F0F6F80F480F4D1830029030380646C7
:1028F000C16A806A183D00902846019118300FC8BF
:10290000203602F05FFDF168B06818350191009043
:102910000FCD02F00BFBE060FEBD00000020004088
:1029200004000020000200207047FEE701688A6969
:10293000D243920701D400228A6200688169C943A8
:10294000C90703D0816901221143816170470000EA
:10295000F7B5044600680F468169C943C90636D4F5
:102960004168890104D44168012292031143416006
:1029700000262546403520688069C043800612D570
:10298000781CF8D0FEF79EFC0299401AB84201D894
:10299000002FF0D1616C2020014361646870AE703B
:1029A0002E700120FEBD21681020C86120682027FC
:1029B000C7612046FFF7BAFF20684168054A114009
:1029C0004160606C0421084360646F70E7E7002099
:1029D000FEBD000000E800FEF8B5044616461548A6
:1029E0001D46DAB20090079F0023204600F054F8FD
:1029F0003A462046069900F0B0F8002818D128463B
:102A0000F5B2012809D02168300A88623A4620468A
:102A1000069900F0A2F800280AD120688562009784
:102A2000002240212046069B00F04AF8002800D0F2
:102A30000120F8BD00200080F8B504461646154870
:102A40001D46DAB2C3020090079F204600F024F82A
:102A50003A462046069900F080F8002818D128460A
:102A6000F5B2012809D02168300A88623A4620462A
:102A7000069900F072F800280AD120688562009754
:102A8000002280212046069B00F01AF8002800D082
:102A90000120F8BD00200080F0B50668059C75682F
:102AA000064F600D384385438805800D11040843A7
:102AB0001843204305437560F0BD0000FF63FF032A
:102AC000F8B51D4617460E46044609E0681C07D0B7
:102AD000FEF7F8FB0699401AA8420BD8002D09D042
:102AE00020688169304688430FD00020B842EDD07D
:102AF0000020F8BD616C20200143616440346070A7
:102B00000020A07020700120F8BD0120EEE770B514
:102B100016460D4604460FE0324629462046FFF78A
:102B200017FF002801D0012070BDFEF7CBFB801BF2
:102B3000A84208D8002D06D020688069C0438006CE
:102B4000EAD4002070BD616C2020014361644034F0
:102B500060700020A0702070E5E770B516460D4645
:102B6000044611E0324629462046FFF7F1FE0028D0
:102B700001D0012070BD681C06D0FEF7A3FB801BAE
:102B8000A84208D8002D06D020688069C04380077D
:102B9000E8D4002070BD616C2020014361644034A2
:102BA00060700020A0702070E3E700000EB50021E7
:102BB0001848009101910291154A416002608160BC
:102BC000012204230C300EC0017041708170FF237C
:102BD000C170C233436003468160083319710261DA
:102BE0001838FEF713F9002801D0FDF75DFF052026
:102BF00000900120000301900004029069460548FE
:102C0000FEF778F8002801D0FDF74EFF0EBD00005A
:102C1000002401404402002008B50C48426901210B
:102C200089050A43426142690A400092426949119A
:102C30000A43426142690A400092426949000A43DC
:102C4000426140690840009008BD00000010024049
:102C500010B513481149016012494160002181609B
:102C60000161416181610122C161C2600162FEF7BF
:102C700079FB002801D0FDF717FF00210848FEF777
:102C800027FB002801D0FDF70FFF00210448FEF7C5
:102C900044FB002801D0FDF707FF10BD00540040A1
:102CA000840200200B02000030B587B01421684672
:102CB000FDF79BFA00241B491B48059412C06321B1
:102CC00001608460C4601949046141600838FFF7FD
:102CD00057F9002801D0FDF7E7FE1621684601707C
:102CE00022254570182181700394012269460E48FF
:102CF0000494FFF70DFA002801D0FDF7D5FE062158
:102D0000684601750321417505218175C57501224C
:102D100005A90548FFF79EF9002801D0FDF7C4FE7C
:102D200007B030BD00280040E4020020C3090000C5
:102D300010B50A48084901600949416000218160D5
:102D400009220161C2608161FFF7DCFA002801D02D
:102D5000FDF7AAFE10BD0000002000404C0300203B
:102D6000BF12000010B596B000240F941094119477
:102D7000129413941C2108A81494FDF736FA20210C
:102D80006846FDF732FA2B48294901602A498460D8
:102D900041600461446109218461C160FFF7B2FAB6
:102DA000002801D0FDF780FE012000030F900FA93D
:102DB0002048FFF717FB002801D0FDF775FE1D48DE
:102DC000FFF7C1FC002801D0FDF76EFE139413A994
:102DD00018481494FFF76EFA002801D0FDF764FE3E
:102DE0006020089005200E9409900A940C940D948C
:102DF0000C2208A90F48FFF73EFC002801D0FDF780
:102E000053FE012000944003029405900194039422
:102E10000494694607940748FFF71CFA002801D07C
:102E2000FDF742FE0348FFF7FDFB16B010BD0000A2
:102E3000002C014004030020BF03000070477047CE
:102E400001090A2200075143000F4018C0B2704721
:102E5000002102E00A38C0B2491C0A28FAD2090748
:102E6000090E0843704770B504460068C1684906FA
:102E700013D40021C943C160FEF724FA7D2605461C
:102E8000F60006E0FEF71EFA401BB04201D903200F
:102E900070BD2068C0684006F4D5002070BD704742
:102EA00010B5FEF7C3FC10BD30B595B030216846B3
:102EB000FDF79BF900240F941320009001200D943E
:102EC0001294109403900190059010200E94139486
:102ED000069004900003099000010C9402250A90CA
:102EE000119408950B946846FEF736FE07200C9067
:102EF0000E9401210D950F940CA8FEF769FD05486D
:102F00001090032000021190139410A8FEF7ECFC1F
:102F100015B030BD200001007047000010B5024818
:102F2000FFF7CFFA10BD00004C03002070B5026817
:102F3000174B184E984201D0B04203D17024A243DF
:102F40004C682243144C154D984208D0B04206D02C
:102F5000134EB04203D0A04201D0A84204D10326B0
:102F60003602B243CE6832438026B2434E693243C2
:102F700002608A68C2620A688262984203D0A042F4
:102F800001D0A84201D1096901630121416170BDED
:102F9000002C014000040040004401400048014072
:102FA0000020004010B5CB06DB0E0121046A9940D9
:102FB0008C430462016A9A401143016210BD30B52E
:102FC0008468FF252D021B021343AC430B432343AC
:102FD000836030BD826870239A430A4307210A4305
:102FE00082607047F0B5026A520852000262056AB8
:102FF000436882697024A24392080C6892001443CB
:10300000022295438A68134E2A43114DA84204D0E8
:10301000B04202D0104FB84206D10827BA43CF6859
:103020001743042297433A46A84204D0B04202D044
:10303000094DA84206D103252D02AB434D691D431E
:103040008B692B4343608461496841630262F0BD30
:10305000002C0140004401400048014070B5026A64
:1030600010239A430262046A4368826973252D0221
:10307000AA430D682D021543202294438A68120149
:103080002243104CA04208D11446CA688026B4439B
:10309000120122434024A24305E00B4CA04202D07F
:1030A0000A4CA04208D10324A402A3434C69A40003
:1030B0001C438B699B00234343608561496881639E
:1030C000026270BD002C01400044014000480140F4
:1030D00070B5026AFF2301339A430262046A4368AF
:1030E000C2697025AA4392080D6892001543012217
:1030F000520294438A6812022243104CA04207D124
:10310000C414A243CC68240222430615B24305E04E
:103110000B4CA04202D00B4CA04208D10324240344
:10312000A3434C6924011C438B691B012343436067
:10313000C5614968C163026270BD0000002C014096
:10314000004401400048014030B5026A01231B03DE
:103150009A430262056A4268C36973242402A34346
:103160000C6824021C4301235B039D438B681B03F3
:103170002B430A4DA84205D0094DA84202D0094D63
:10318000A84205D10125AD03AA434D69AD012A43EB
:103190004260C46149680164036230BD002C014093
:1031A000004401400048014030B5036A046A6408E5
:1031B000640004628469F025AC43120122430A24AE
:1031C000A3430B438261036230BD30B5036A102410
:1031D000A34303628469036A0F252D031203AC43E2
:1031E0002243A024A343090119438261016230BD37
:1031F0000FB410B504A9074B02AA039800F026F9F2
:10320000044602A9002000F0BDFC204610BC08BC0A
:1032100004B01847853B00082021020C01D0102182
:103220001046020A01D010460839020901D01046A2
:10323000091F820801D01046891E420801D0881E4D
:103240007047081A7047F8B5040C8BB2264682B254
:103250005E430D0C1046370C58433604801900218C
:10326000794116466E43370C36048019794126465B
:103270006E438919F8BD30B47446641E2578641C09
:10328000AB4200D21D46635D5B00E31830BC1847BB
:103290008307FF22DB0E9A408907090E9940002818
:1032A00008DB830809489B001B18186890430843F3
:1032B000186070470007000F0838830804489B0017
:1032C0001B18D86990430843D861704700E400E0B8
:1032D00000ED00E002E008C8121F08C1002AFAD180
:1032E00070477047002001E001C1121F002AFBD186
:1032F00070470000F0B51FB484B007980699020D1E
:10330000014314D04A484B491018484305140F98FC
:1033100001280E981CD0281A401C0024464E47490C
:10332000009401910290002814DA474227E00F9898
:10333000012443A3012808D0002104980F9A846037
:103340000360C260416009B0F0BD0E98C143F4E76C
:103350004042E2E7074612E0F80707D0224633462C
:1033600001990098FDF7DEF801910090224633465E
:1033700010461946FDF7D6F804460E467F10002F7A
:10338000EAD10298019B0028009A0799069802DA70
:10339000FDF7C8F801E0FDF781FA04460E46002269
:1033A000284BFDF713FB03D80020C043014607E07C
:1033B0000022254B20463146FDF702F8FDF7E6FADC
:1033C000102409E0002C0ADB0A220023FCF7B2FEDD
:1033D000059B30321A55641E02460A43F2D111226F
:1033E000641C059B121B1C190F9B012B03D001238E
:1033F00008430ED10AE0084304D011200E900020AB
:103400000F9084E70E98151A6D1E0BE00E988242FD
:1034100002DD00236D1C03E0824201DA00236D1EF1
:10342000002BEED004980F998260C16030C08AE70B
:1034300001FCFFFF104D0000000024400000F03FA1
:10344000300000000000F0430000E03FFFB597B0FF
:103450000646002518E2252877D100242746FD4995
:10346000049400E00443761C32780120203A904016
:103470000842F7D130782A280ED00222307801464F
:103480003039092916D804990A235943303940188C
:103490001443761C0490F1E7189802C80491189020
:1034A000002904DA0120400304434842049002202A
:1034B0000443761C30782E2814D1042004437078FD
:1034C000761C2A2809D11898761C80C8189009E023
:1034D0000A214F43303FC719761C307801463039F6
:1034E0000929F5D930786C2810D006DC4C281AD080
:1034F00068280ED06A2817D104E0742813D07A28DF
:1035000012D110E00120400504430CE0012109051F
:1035100001E0032109050C437178814203D10120A8
:1035200000052418761C761C3078119066280BD084
:1035300013DC58287DD009DC00287BD04528F6D044
:103540004628F4D047281AD1A5E118E0632835D0E1
:10355000642870D0652812D19DE170286CD008DCF9
:103560006728F1D069287BD06E280DD06F2806D14E
:10357000BAE073282ED0752871D0782859D01A9ABD
:10358000199990476D1C7EE16002400F022809D016
:1035900003280DD00428189801680DD00D60001D77
:1035A000189070E11898EA1701680D604A60F6E714
:1035B000189801680D80F2E70D70F0E718986A46D8
:1035C00001781172001D18900020507202A800901E
:1035D000012005E0189802C8189000200091C0430F
:1035E00061070DD5002101E00199491C0191B94203
:1035F00012DA8142F8DB009A515C0029F4D10BE029
:10360000002101E00199491C01918142FADB019AF4
:103610000099895C0029F5D1019904981A9B471AF1
:1036200021463846199A00F097FA01994019451831
:103630000BE04FE02CE113E04EE000980099007899
:10364000491C00911A9A199990470198401E0190BF
:10365000401CF2D1214638461A9B199A10E137E0F6
:103660000A200021009001916002410F022907D039
:10367000189A01CA1892C2179446032908D00AE082
:103680001898C01DC108C90005C91891944607E0E3
:1036900000B2C2179446042902D140B2C1178C4629
:1036A00000226146944506DA0A46002140429141D3
:1036B0008C462D2102E0210504D52B216A46117389
:1036C000012103E0E10701D02021F7E7029155E055
:1036D0000A200AE0102008E01020009000210420B9
:1036E00004430191082703E0082000210191009084
:1036F0006002410F022907D0189A01CA18920022CD
:103700009446032908D008E01898C01DC108C900D4
:1037100005C91891944603E080B2042900D1C0B2D3
:1037200000210291210729D51199702906D0009A0C
:103730001021019B4A401A4305D00EE040216A4601
:103740001173012108E06146014306D030216A4629
:1037500011731199517302210291009A0821019B62
:103760004A401A430AD16146014301D1610705D598
:1037700030216A46117301217F1E02911199582947
:1037800004D035A10E910DA90D910DE037A1F9E7F7
:103790006146019B009AFCF7CDFC0E9B8C469B5C1E
:1037A0000D9A521E0D92137061460143F0D10D988F
:1037B00005A9081A20300190600703D501200004F4
:1037C000844300E001270198874201DD381A00E0B8
:1037D0000020019900904118029809180498401A95
:1037E0000490E00306D421461A9B199A049800F02D
:1037F000B3F94519002706E003A81A9AC05D199984
:1038000090476D1C7F1C02988742F5DBE0030CD5C6
:1038100021461A9B199A049800F09EF9451904E074
:103820001A9A3020199990476D1C0099481E0090F3
:103830000029F5DC08E00D980D990078491C0D91E0
:103840001A9A199990476D1C0199481E01900029F8
:10385000F1DC63E109280100303132333435363789
:1038600038396162636465660000000030313233CC
:10387000343536373839414243444546000000006C
:1038800000F05AF94519761C3078002800D0E2E59E
:1038900028461BB0F0BD600700D406271898C01D4D
:1038A000C108C90048680A680831C30FDB071891CE
:1038B000190001D09CA108E0210501D59BA104E0DD
:1038C000E10701D09AA100E09AA1430011985B089A
:1038D000109165280CD006DC452809D046281DD05B
:1038E000472841D141E0662818D067283CD13CE008
:1038F0000021112F01DB112000E0781C01910090C4
:1039000008A911A8FFF7F6FC139905910021119A57
:1039100015927F1C12980197009150E00120C0077A
:1039200003900120019008A9009711A8FFF7E2FC7D
:10393000139A149905920022119B009212981593E4
:10394000059A0192002901D0104602E0791C401826
:103950000190381A01D5019804E04042401E0090C1
:10396000781C0190C01B029043E0012F00DA012770
:103970000021112F01DD112000E038460191009057
:1039800008A911A8FFF7B6FC13990591119A002117
:10399000129815920091019721070CD40599B9420C
:1039A00001DB019900E00191012904DD159A491E0E
:1039B000515C302906D0B84201DA011D05DA012137
:1039C000029115E00199491EEDE7002805DC0099F8
:1039D000411800910199091A03E0019A411C914292
:1039E00000DD01910099401A401C02900120C0079F
:1039F0000390200706D402990198814202DB00203F
:103A0000C043029000206946C87707AF01210398A0
:103A10000337C907884224D0022011902B2012902E
:103A2000039800280CDA404203902D20129007E002
:103A30000A210398FCF754FB30317F1E0390397044
:103A40001199481E11900029F2DC03980028EFD14B
:103A5000791E129808703078202108404530BF1E2A
:103A6000387006A8C01BC01D03901098007800286D
:103A700000D00120019941180298C0170918039835
:103A800009180498401A401E0490E00306D4214609
:103A90001A9B199A049800F05FF84519109800785D
:103AA000002803D01A9A199990476D1CE00324D579
:103AB00021461A9B199A049800F04EF845191CE00B
:103AC0000098002807DB00990598884203DD1598C7
:103AD000405C199901E0199930201A9A9047009892
:103AE0006D1C401C00900298401E0290002804D1DA
:103AF0001A9A2E20199990476D1C0199481E019021
:103B00000029DDDC05E038781A9A7F1C1999904766
:103B10006D1C0399481E03900029F4DC21461A9B72
:103B2000199A0498ACE600002D0000002B0000005C
:103B30002000000000000000F8B5044600251E46E5
:103B40001746880404D405E039462020B0476D1C90
:103B5000641EF9D52846F8BDFFB50446002581B09E
:103B60001E46C80301D5302700E02027880404D56D
:103B700005E038460399B0476D1C641EF9D5284608
:103B800005B0F0BD0A68531C0B6010707047000050
:103B9000F0B50546974C2E46A07B2036002785B011
:103BA00000281DD19449954801F04FFE94A31E2290
:103BB0000021924801F026FE93A3282200218F487D
:103BC00001F020FE3078012801D0022802D1894975
:103BD00050314F708E49AA698A4201DD002805D014
:103BE000A07B022804D001280BD0E9E00220A073BA
:103BF000E07B401CC0B2E0730A287DD1E77301204E
:103C0000A0737D497D4801F020FE82A3142200218B
:103C10007A4801F0F7FD2869FCF714FD02B27EA195
:103C200001A8FFF7E5FA232201AB1146734801F022
:103C3000E9FD0F200D2300901A4628216F4801F05E
:103C4000CEFC76492869FCF734FB7549FCF731FB5B
:103C5000FDF716F87349FCF72CFBFCF7F3FC41B2B7
:103C60002820401A04906D492869FCF722FB6C4912
:103C7000FCF71FFBFCF7C6FF6A49FCF71AFBFCF7D1
:103C8000E1FC0D2140B2081A80B2009004980A4667
:103C900083B22821594801F047FD63A3382200214F
:103CA000564801F0AFFD6869FCF7CCFC02B25AA19E
:103CB00001A8FFF79DFA01AB4B2223214F4801F0E9
:103CC000A1FD0F2000900D23352228214B4801F043
:103CD00086FC52496869FCF7ECFA5149FCF7E9FAAD
:103CE000FCF7CEFF4F49FCF7E4FAFCF7ABFC41B21E
:103CF0002820401A049000E077E048496869FCF702
:103D0000D8FA4749FCF7D5FAFCF77CFF4549FCF7A0
:103D1000D0FAFCF797FC352140B2081A80B2009027
:103D200004980A4683B22821344801F0FDFC3FA3E1
:103D300060220021314801F065FDE869FCF782FC52
:103D400002B235A101A8FFF753FA01AB7322232178
:103D50002A4801F057FD0F2000900D235D222821F5
:103D6000264801F03CFC2D49E869FCF7A2FAFCF773
:103D700087FF2C49FCF79DFAFCF764FC41B2282030
:103D8000401A04902549E869FCF793FAFCF73AFFDA
:103D90002449FCF78EFAFCF755FC5D2140B2081A65
:103DA00080B2009004980A4683B22821134801F09B
:103DB000BBFC1748A969814202DD3078002816D083
:103DC000A07B032811D10C490C4801F03EFD18A33B
:103DD0001E220021094801F015FDE07B401CC0B205
:103DE000E073142801D1E773A77305B0F0BD032079
:103DF000A073E8E714000020C16D00085401002002
:103E0000506C6561736500007368616B652100002B
:103E100000004041580000002564000035FA8E3C47
:103E20000000C04000005041590000005A0000004E
:103E3000534554204F4B0000FEB500260746364C34
:103E4000009601960296207C3D46203500281DD123
:103E50003249334801F0F9FC32A31E2200213048D8
:103E600001F0D0FC31A3282200212D4801F0CAFC2A
:103E70002878012801D0022802D1274950314E70FC
:103E80002C4AB969914201DD002805D0207C022826
:103E900004D001280BD023E002202074607C401C59
:103EA000C0B260740A2836D16674012020741A49A1
:103EB0002878123100F03CFF002802D00320207443
:103EC00011E0A27C1CA16846FFF792F9134914483F
:103ED00001F0BBFC6B4678220021114801F092FCF6
:103EE000207C032817D10D490D4801F0AEFC14A326
:103EF0003C220A210A4801F085FC13A346220A212C
:103F0000074801F07FFC607C401CC0B2607414283C
:103F100001D166742674FEBD14000020C16D000836
:103F200054010020506C6561736500007368616B1B
:103F3000652100000000404125642070747300007A
:103F400047414D45000000004F554552000000001C
:103F5000F8B5804C02272646617D50363578002919
:103F600014D1203002780120012A04D0022A07D07F
:103F7000002A0AD00AE0012D3ED02075607510E0BD
:103F8000052D03D02775607513E07070012902D0EC
:103F9000022928D030E0207D012802D0022808D054
:103FA00010E0208B401C00B2208300280ADD002096
:103FB00007E0208B401E01B26320C0432183814271
:103FC00000DA20831821605EFCF7A0F8002913D1E5
:103FD000207D012802D0022802D003E06D1E00E0FF
:103FE0006D1C35706775E07C401CC0B2E0740F2812
:103FF00002D10020E07460755749584801F025FC53
:10400000208B57A341004018123081B278225348C8
:1040100001F0F8FB5349514801F017FC208B452370
:10402000410040180C3081B25A224C4801F0F6FA97
:1040300049494A4801F009FC208B4BA34100401834
:10404000583081B27822454801F0DCFB45494348AD
:1040500001F0FBFB208B482341004018523081B215
:104060005A223E4801F0DAFA3B493C4801F0EDFBA8
:10407000208B3EA3410040189E3081B27822374801
:1040800001F0C0FB3749354801F0DFFB208B4123AD
:1040900041004018983081B25A22304801F0BEFAEF
:1040A0002D492E4801F0D1FB208B31A3410040184F
:1040B000E43081B27822294801F0A4FB294927483D
:1040C00001F0C3FB208B462341004018DE3081B253
:1040D0005A22224801F0A2FA1F49204801F0B5FBFC
:1040E000208B25A341004018FF302B3081B278226D
:1040F0001A4801F087FB1B49184801F0A6FB208BEA
:10410000472341004018FF30253081B25A2213481E
:1041100001F084FA1049114801F097FB208B18A395
:1041200041004018FF30713081B278220B4801F015
:1041300069FB0C49094801F088FB208B40234100B2
:104140004018FF306B3081B25A22044801F066FA01
:10415000F8BD000014000020C16D000854010020CB
:1041600052544300BD69000853545700534554004E
:10417000414852530000000047414D4500000000F7
:10418000494E464F00000000F0B585B00026504C67
:10419000054601960296039620784E4F002877D167
:1041A0004D494E4801F051FBA87A21468000343138
:1041B00040188038C26F4AA101A8FFF719F801AB77
:1041C00055223221454801F01DFB6868FCF767FA6B
:1041D00002460B4643A101A8FFF70AF801AB0922EA
:1041E00032213E4801F00EFB40493C4801F02DFBD6
:1041F0003FA332220A21394801F004FBEB7A6A7AA4
:104200003DA101A8FEF7F4FF01AB55220021334880
:1042100001F0F8FAA87B00906B7B2A7B39A101A8FA
:10422000FEF7E6FF01AB5F2205212C4801F0EAFA18
:104230002A7A38A101A8FEF7DBFF01AB4B220C2143
:10424000264801F0DFFA6A8C34A101A8FEF7D0FFFE
:1042500001AB78221421214801F0D4FA30491F48DB
:1042600001F0F3FA4423782200211C4801F0D6F92A
:104270002020405D012801D0022802D1144850308E
:104280004670A869B84203DD0220207011E0FFE704
:10429000207802280DD0042814D0032807D1607894
:1042A000401CC0B26070142801D16670267005B041
:1042B000F0BD6078401CC0B260701428F7D1667001
:1042C00004202070A869B842F1DD03202070E6E7E1
:1042D000140000200000A0413D710008540100209E
:1042E00025730000252E316656000000C16D0008C0
:1042F000492D52494E470000253032642025303286
:1043000064000000253032643A253032643A2530AA
:104310003264000032302530326400002564000031
:1043200016690008F0B5064685B00020C64C01901D
:1043300002900390607A37462037C44D002833D16D
:10434000307A2870707A6870F07AA870B07AE87065
:10435000307B2871707B6871B07BA871BC48017894
:10436000E9714178297280786872BA49BA4801F0D7
:104370006CFABAA31E220021B74801F043FAB9A390
:1043800028220021B44801F03DFA3878012801D0F4
:10439000022803D1AC4A002150325170B349B269AE
:1043A0008A4201DD002805D0607A022804D0012865
:1043B0000CD00BE102206072A07A401CC0B2A07247
:1043C0000A287DD10020A07201206072A07A401CD2
:1043D000C0B2A0720A286AD10022A27238780128DD
:1043E00016D0022854D003280AD004285FD1607B5D
:1043F000401C40B260730A2859D10920607356E00E
:10440000607B401E40B26073401C50D162734EE02E
:104410000D202056295C491C49B22954082812D085
:10442000092810D005280ED006280CD004280ED05C
:1044300007280CD001280FD0022814D0002819D04A
:1044400003281ED033E03B2931DD3B2102E0172950
:104450002DDD172129542AE0012028560C2826DDBD
:104460000C20687023E0022028561F281FDD1F2023
:10447000A8701CE000202856632818DD63202870EF
:1044800015E003202856072811DD0720E8700EE00C
:104490000D202056295C491E49B22954012819D003
:1044A000022817D0032815D0002900DA2A54674DB6
:1044B00000200A356549095C2954401CC0B200E05F
:1044C0009BE00A28F6D3E07A401CC0B2E0720A28CA
:1044D00004D00AE00029EAD10121BBE70020E07204
:1044E000207B00280AD000202073207B002807D0E2
:1044F0000D2056492056095C295405E00120F3E7B8
:1045000058200D21615668545949534801F09DF9CE
:1045100045231E220021504801F080F84D494E48A5
:1045200001F093F90022AA5652A101A8FEF760FEFD
:1045300001AB28220021484801F064F903202856E5
:10454000009002230122EB56AA564CA101A8FEF7C7
:104550004FFE01AB322200213F4801F053F9062003
:104560002856009005230422EB56AA5646A101A81E
:10457000FEF73EFE01AB3C220021374801F042F934
:104580004549354801F061F941235A22002132485A
:1045900001F044F82F49304801F057F90920285616
:1045A000009008230722EB56AA5637A101A8FEF770
:1045B0001FFE01AB64220021274801F023F92B489C
:1045C000B169814202DD3878002818D0607A03286A
:1045D00013D12049204801F038F930A31E220021D0
:1045E0001D4801F00FF900206073A17A491CC9B27F
:1045F000A172142901D1A072607205B0F0BD134DF3
:1046000028482978C17069784170A9788170E97863
:10461000017025482979017069794170A979817003
:10462000002220492148FDF715FD00221E491F48A0
:10463000FDF76EFD0648E9790170297A4170697AC3
:10464000817003206072C4E714000020240200205F
:1046500007000020C16D000854010020506C656106
:10466000736500007368616B6521000000004041C4
:10467000266600083230253032640000253032646E
:104680002530326420256400253032643A253032EA
:10469000643A2530326400005B67000853455420BB
:1046A0004F4B00008B000020D0020020E4020020CD
:1046B000F1B584B0794C049FA078002520370028FC
:1046C00002D0022863D06FE03E78032E02D0042E81
:1046D00006D01CE0E5716571E5702571E58216E094
:1046E0000120E0716571801E2072E5706B482571B4
:1046F000E58206212030FBF778FD68480621263048
:10470000FBF773FD654806212C30FBF76EFD04981E
:1047100063498069884247DD002E45D10220A070A0
:10472000E079002802D0012808D030E06079002824
:1047300002D0002060712AE00120FBE760790128A7
:1047400002D000282AD022E0207A401C40B22072F9
:1047500006280FD15148257206212030FBF745FD70
:104760004E4806212630FBF740FD4C4806212C30F0
:10477000FBF73BFD494908202056E27820310A54D6
:104780002279891D0A54454AA17D2C321154A07901
:10479000401CC0B2A0710A2804D005E0012060715D
:1047A00005B0F0BDA571A5703E486179006800298B
:1047B00002D0012902D004E0E06102E0A18B411A9D
:1047C000E182E18A384A91420BD3E5822179491C82
:1047D000C9B221713C2903D32571E178491CE170EC
:1047E000E0613249324801F030F8E079002805D123
:1047F00030A3192200212E4801F004F8E0790128A5
:1048000005D12DA319220021294800F0FBFF2379AF
:10481000E2782AA101A8FEF7EBFC01AB28220021D7
:10482000234800F0EFFFE28A28A101A8FEF7E0FC90
:1048300001AB322214211E4800F0E4FFE079012888
:104840001ED1002608202056B04215DB134821A1B6
:104850002C30805D009011482630835D801F825D82
:1048600001A8FEF7C5FC32460A20424301AB0021F5
:104870000F48463200F0C6FF761CF6B2052EE1D98D
:104880003878012801D002288AD1E57003482571C3
:10489000E58250304570A570657181E714000020F5
:1048A000000040410C000020E7030000C16D00083B
:1048B000540100204C41500053504C002B25303205
:1048C00064203A2025303264000000002530336433
:1048D00000000000253031643A253032643A25303A
:1048E00033640000FFB5044600209FB0129014907E
:1048F00015901690139017900090019002900390DD
:104900000490059006900790089009900A900B90EB
:104910000C900D900E900F9010901190A0690021B6
:104920001A908800051912AAEB681350235815AA8B
:1049300013506A46EB69135003AEAA6A32506F6B8C
:1049400006AD2F5009AD2B500CAE32503A46491CE3
:104950000FAFC9B23A500329E3D320980068009002
:10496000189014990B98FBF7A4FC1E9013990A98C1
:10497000FBF79FFC1D9002991798FBF79AFC1C907F
:1049800001991698FBF795FC1B9018991598FBF761
:1049900090FC1B99FBF734FC1C99FBF731FC1A992E
:1049A000FBF787FC1D99FBF77CFC1E99FBF779FC54
:1049B00009901299FBF7BAFC209908602198149984
:1049C0000068189003900E98FBF773FC1E901399E3
:1049D0000D98FBF76EFC1D9005991798FBF769FC85
:1049E0001C9004991698FBF764FC1B901899159875
:1049F000FBF75FFC1B99FBF703FC1C99FBF700FC22
:104A00001A99FBF756FC1D99FBF74BFC1E99FBF717
:104A100048FC0C901299FBF789FC219908602298B8
:104A200014990068189006901198FBF742FC1E90AC
:104A300013991098FBF73DFC1D9008991798FBF708
:104A400038FC1C9007991698FBF733FC1B901899BB
:104A50001598FBF72EFC1B99FBF7D2FB1C99FBF773
:104A6000CFFB1A99FBF725FC1D99FBF71AFC1E9941
:104A7000FBF717FC0F901299FBF758FC229908607E
:104A800001980290009801900A980B9009980A905A
:104A900004980590039804900D980E900C980D9032
:104AA0000798089006980790109811900F9810900A
:104AB000002081000A196B58D36173589362401C1F
:104AC0007958C0B251630328F3D323B0F0BD00007E
:104AD00010B586B00C46016800914168019181686B
:104AE0000291C1680391016904914069059002AB8C
:104AF00001AA69460B48FFF7F5FE0A4805AB04AA70
:104B000003A96430FFF7EEFE009820600198606012
:104B10000298A0600398E0600498206105986061A5
:104B200006B010BD1409002030B50A48084C7F219A
:104B30000122C9059207846106C002C0064B074DD9
:104B40002AC04C30846106C002C02AC030BD0000BB
:104B5000DF85A43C1409002071CFC7BF9D2F243FDF
:104B60007CB504462C48FCF79BFA0A212A48FCF73E
:104B700033FA002229492A48FDF7B2F900222949CF
:104B80002748FDF7CFF92848264D01902869009065
:104B90000FCD103D00F030FC244800F0F1FA00F099
:104BA00027FA224E21463036B0602031304600F0E0
:104BB000D1FB2878207368786073A878A0731748B1
:104BC0008178E1720178A17241786172C0782072B7
:104BD0001148FCF717F9FBF72EFD0B21C943FBF732
:104BE000E3FBFBF75CFD124A124BFBF79BFC012237
:104BF000FBF700FDFBF767FD60603068606170687F
:104C00002061B068E061304618388068A0610648CD
:104C1000C01E808960847CBD440200208B0000207F
:104C2000E4020020D002002007000020E80100205C
:104C30006666666666660A4010B5002823D0124B89
:104C40000022001F196803E0814203D80A46496820
:104C50000029F9D1002A0AD01368841A9C4204D191
:104C6000006818181060104602E0506000E01860FC
:104C7000002907D002680B1A934203D10B68D2189F
:104C800002604968416010BDCC000020F7B51D4F9F
:104C9000164638680D46009C406AFBF796FAFBF70B
:104CA0008BFAC117490F0918C908C900401A2870A2
:104CB000FBF782FA0F21FBF729FA317020782A7866
:104CC00001090007000F8A4217D13178814214D1BF
:104CD0003868406AFBF779FAFBF76EFAC117490F9B
:104CE0000918C908C900401A2870FBF765FA0F2196
:104CF000FBF70CFA3170009C00E06468002CDDD1F9
:104D0000FEBD00004C03002010B5592101700021A8
:104D1000816041600A220521044800F0AFF80B22AF
:104D20000521024800F0AAF810BD0000380200205A
:104D3000F8B5254C0746207900260D46022802D0FA
:104D400000280AD031E02148FFF7DEFF1E4A1F4845
:104D5000921D511EFFF79AFF26716078401CC0B269
:104D600060700F281CD16670384600F03DF8A070C6
:104D70000146A3796279154800F096F8E0700128A1
:104D800008D1114A1148921D511EFFF77FFF287864
:104D9000401C2870E078002802D1012020712E707C
:104DA000A2796179094800F03DF82079012801D005
:104DB0000020F8BD054800F00BF80220207101200A
:104DC00000F012F80120F8BD840000203802002015
:104DD00070B50546846803E0A4686068FFF72CFF9F
:104DE000AC42F9D170BD00000D49002815D00A78F9
:104DF000012A06D0022A07D0032A08D0042A09D0A3
:104E00000BE0022808D108E0012805D105E00428BC
:104E100002D102E0032800D0087008787047000033
:104E20008400002070B50E4604461546114912480C
:104E300000F00BFD0FE020784B2301090007CA00AA
:104E4000000F511A401CC200101AC2B2C9B20A485F
:104E500000F0E4FB6468002CEDD1F000801BC1B2CF
:104E60006D1CE800401BC2B24B23034800F0D6FB88
:104E700070BD00002C6500085401002070B5054687
:104E800014460E460C2000F023FB31012143017033
:104E900000212C46416000E00C4661680029FBD1EE
:104EA00060608460A86070BD70B51546826803E0DC
:104EB00094682678167022468242F9D10278140945
:104EC0001207120F012906D0022907D0032907D0A3
:104ED000042909D107E0521ED2B205E0521C03E0BA
:104EE000641EE4B200E0641C21011143CEB20670DE
:104EF000082C06D80F2A04D8406805E000788642BE
:104F000001D1002070BD084641680029F6D1AC42AD
:104F100008D19A4206D11A4629460348FFF7AEFF48
:104F2000012070BD022070BD3802002010B5084677
:104F30001A49FBF7BEF93F210906FBF761F9FBF7B8
:104F400081FB04B22146164800F0F8FA1448001F0D
:104F50000188418009B20A1B002A02DC611A1E295D
:104F600000DD04800E4804210622415E825E022399
:104F70008818C10F0A4A08184010121F01B2D35EE8
:104F8000104608388B4206DD0023D35E8B4202DADE
:104F90004168491C4160406810BD000000007A442F
:104FA000C00000207FB510A0006801240390642594
:104FB00003A86E4631C6234600223C210B48FCF76D
:104FC0005DFB701C6E4631C601231A463C21074822
:104FD000FCF754FBB01C6E4631C6012302223C2173
:104FE0000248FCF74BFB7FBD7020000084020020CC
:104FF000F0B58BB0002003907D220490D2000621F2
:1050000007A86C4607C4012303223C213E48FCF755
:105010008BFA6846808B3D4C40BA01B2684681816C
:105020000291008C40BA06B26846C681C08B40BA75
:1050300007B2684607820020A51D410003AA525E00
:10504000635E9A4200DD62526B5E9A4200DA6A52F7
:10505000401CC0B20328F0D300200021205E695E0E
:105060004018C10F08184010FBF7DAFA019002202F
:105070000221205E695E4018C10F08184010FBF73E
:10508000CFFA0A9004200421205E695E4018C10F07
:1050900008184010FBF7C4FA04460298FBF7C0FA60
:1050A0000199FBF7FEF8FBF7CDFA05B269468D8151
:1050B0003046FBF7B5FA0A99FBF7F3F8FBF7C2FAAB
:1050C00000B26946C88106463846FBF7A9FA214670
:1050D000FBF7E7F8FBF7B6FA694608822846FBF7C4
:1050E0009FFA0B4D2946FBF721F904463046FBF7A2
:1050F00097FA2946FBF71AF92146FBF7D7FC054931
:10510000FBF7D7F80BB0F0BD84020020A60000200A
:1051100000408844E12E654230B585B004460A223D
:10512000062103A86D4607C501233B22D121124861
:10513000FCF7FAF96846808940BA00B2FBF770FACA
:105140000E4D2946FBF7B5F820606846C08940BA85
:1051500000B2FBF765FA2946FBF7ABF860606846DA
:10516000008A40BA00B2FBF75BFA2946FBF7A1F8C8
:10517000A06005B030BD000084020020A1D71F3B15
:10518000F8B504460B4F0C4E0C4DFFF7C5FF2046FB
:1051900000F016F83946E068FBF783F8E060314626
:1051A0002069FBF77EF8206129466069FBF779F8F2
:1051B0006061F8BDFD9F23BF034025BF76FE6DBC37
:1051C00030B585B004460A22062103A86D4607C5FE
:1051D00001234322D1211248FCF7A6F968468089B1
:1051E00040BA00B2FBF71CFA0E4D2946FBF761F8F6
:1051F000E0606846C08940BA00B2FBF711FA294660
:10520000FBF757F820616846008A40BA00B2FBF706
:1052100007FA2946FBF74DF8606105B030BD000084
:1052200084020020D6FF793DF0B585B00A20FBF757
:1052300065FF00F075F8802168460173012464263B
:1052400003AD23466B22D021344802960095019489
:10525000FCF714FA0027684607730A20029001231E
:105260006B22D121009501942C48FCF75DF968462A
:10527000007B4128F1D16846047301236B22D021C1
:105280002648029600950194FCF7F8F968460773E2
:1052900001236C22D0212148029600950194FCF74D
:1052A000EDF902276846077301231A22D0211B4813
:1052B000029600950194FCF7E1F968460473012316
:1052C0001922D0211548029600950194FCF7D6F9D1
:1052D00018216846017301231B22D0210F48029632
:1052E00000950194FCF7CAF9102168460173012367
:1052F0001C22D0210948029600950194FCF7BEF9C2
:105300006846077301231D22D021044802960095A8
:105310000194FCF7B3F905B0F0BD00008402002051
:105320007FB5002069460A250873012403A86E464C
:1053300031C601237522D1210548FCF7F5F80A2072
:10534000FBF7DCFE6846007B1228EFD17FBD000032
:105350008402002070B5174B0668174C174D184A89
:105360009E420BDA964209D24668A64201D901262E
:105370000E704668AE4201DD02260E7046689E42FF
:105380000BDA964209D20668A64201D904240C70B1
:105390000468AC4201DD03240C7004689C4208DA06
:1053A000944206D24068984203DA904201D200202B
:1053B000087070BD00002041000070C10000704105
:1053C000000020C1F8B50D460121C9074840144628
:1053D0001146089EFBF76AFB064F3946FAF769FF4C
:1053E000706021462846FBF761FB3946FAF761FFFA
:1053F0003060F8BDE12E65420FB410B507986946DC
:10540000097A0278134C91420FD16946497A427861
:1054100091420AD16946897A8078814205D101207A
:1054200060700C210C48FDF7B5F9607801280CD1AB
:10543000A078401CC0B2A0701E2806D10020A07029
:1054400060700C210448FDF7F3F910BC08BC04B0EF
:105450001847000004000020040300208AB0242123
:105460006846FAF7C2FEFCF7E9F9FDF71DFDFF20DB
:10547000F530FBF743FEFDF7CFFBFDF797FBFDF79C
:10548000E7FBFDF711FCFDF753FCFDF76BFC0C216E
:105490000C48FDF77FF9FFF785FDFFF7C5FE0A48C9
:1054A00000F07AF8FFF740FB0848FCF777FF0C2183
:1054B0000448FDF7BDF96846FFF752FB684601F066
:1054C0000FF8F8E704030020540100204C030020EB
:1054D000F0B50B30C108C900144F0026144A0FE084
:1054E00003688B420BD38B4205D95C1A431845687D
:1054F00030C3083B00E04368136002C004E0021DB3
:1055000010680028ECD13046002803D13868002804
:1055100001D00020F0BD064A06481060064A121A63
:10552000D208D20044C001203860D7E7D000002064
:10553000CC000020E4090020E00B002070B5114DE4
:10554000034628780C46401CC0B2287032280CD97B
:1055500001262E70188898805888D880687800288E
:1055600003D1184600F010F86E700020185EA042BB
:1055700000DC204618800220185EA04200DA0446B3
:105580005C8070BDB40000201321C9430180142247
:1055900042808180C280704710B50446074B084A9C
:1055A000084900F095F9204600F058FD00212046FA
:1055B00000F064FD204600F007F810BD65640008A7
:1055C000216100084474000810B501680A7C382184
:1055D000095C406B5143C900FAF707FE10BDFFB5E7
:1055E0001C46101981B0401C80B20A9F0090081917
:1055F000401C83B21546101B82B20E46081B81B2B6
:10560000019800F007F9002806D023462A463146C3
:105610000097019800F002FA05B0F0BDF8B5044615
:105620006030007C1F4615460E46002806D0012833
:1056300009D002280CD0032815D10FE0E16D2046D7
:105640008847401908E0E16D20468847301A09E094
:10565000E16D20468847281A85B204E0E16D2046B6
:105660008847801986B22246284640329684D084E4
:1056700039460025204600F0A6FB010003D0204655
:1056800000F0D0FA85B22846F8BD7FB505468030D7
:1056900082B0007B0A99002836D06846808A0028AC
:1056A00032D0012811D9022902D0032907D00CE0F9
:1056B0006A469289101A6A46401C908105E06A4643
:1056C000128A101A6A46401C1082CE072C46F60F2A
:1056D0004034002E1AD0684621898089814213D82F
:1056E0006189814210D9E389A28905A904A800F043
:1056F00077F9002808D00096286B84686846838A6A
:10570000028A81892846A04706B070BD6846A189F3
:10571000008A8142F8D8E1898142F5D963892289DA
:1057200005A903A8E3E70000FFB51C4685B00023E8
:105730000E980293A14201D90B1B00E0631A9DB29F
:10574000824201D9131A00E0831A9BB2AB420AD9F4
:10575000012602962E461D4633460E461146324617
:10576000264604463046A14205D90E462146344617
:105770001646024630466E08904201D9012001E0EB
:105780000020C043019013480092844201D1641E5E
:10579000A4B2D8B20F46039015E00298002816D0A4
:1057A00000993A46059800F017F80398301A06B2A7
:1057B000002E06DA00990198081880B2009070193E
:1057C00006B27F1CBFB2A742E7D909B0F0BD394687
:1057D000009AE7E7FFFF000038B504464034A3898C
:1057E00093420DD8E38993420AD923898B4207D883
:1057F00063898B4204D9002300930123FFF745FFFF
:1058000038BD000010B5024C446000F0A9F910BD8D
:10581000E160000870B5044640341E460D46E1893B
:10582000A089049B00F026FB002805D0618920890F
:1058300033462A4600F01EFB70BD10B5044600F04A
:10584000A6FB204600F012FC10BD10B50446806D8A
:10585000884207D020467430A16500F063FB2046E3
:1058600000F052F810BD00000149C165704700000A
:10587000D95B00080022014640310A828A82034A2D
:105880004A82CA82016B496808470000FFFF000096
:10589000F8B50025069F04468565C3624163203044
:1058A000027645762646603620468030757345740C
:1058B00001218174C17427633968204688472046D6
:1058C000FFF7D8FF2046FFF7CFFF3574F8BD000083
:1058D0007CB500930C4613460546084A084900F07B
:1058E000D5FB01A800F018FB014668460094027938
:1058F000044B2846FFF7CCFF7CBD00004162000846
:10590000616300088D5E000810B5816D002917D015
:105910000146803101228A568A730223CB56CB730B
:105920004C7B002C0CD0012C0BD07E240457002083
:1059300008562418944200DD8C73834200DDC8733E
:1059400010BD03200856824200DA887304200856EE
:10595000F3E7002B05D0012B05D0022B06D08018D1
:1059600002E0401800E0801A80B27047401AFBE75E
:10597000002B05D0012B05D0022B06D0401A02E0E7
:10598000801800E0401880B27047801AFBE738B5F5
:10599000044605464034E08A0090638AA28A218A40
:1059A0002846FFF737FF8035002816D001202873DE
:1059B0002189208A814200D220816189608A8142C6
:1059C00000D96081A189A08A814200D2A081E189A9
:1059D000E08A814200D9E08138BD0020287338BDBB
:1059E00030B504880D882D19ADB2AC4205D99C4262
:1059F00002D25D1EADB200E014469C4201D2954237
:105A000001D8002030BD944200D214469D4200D9F6
:105A10001D460480281B0880012030BDFFB50120F1
:105A2000C01A06B25842400083B0012700B20025D8
:105A30001C4602900FE0002E07DB0298641E801CBB
:105A400000B202903018A4B206B26D1CBF1C3FB267
:105A5000F019ADB206B20C9905980191009022465A
:105A60002946049B039800F004F8A542E3D307B04D
:105A7000F0BDFFB589B012981546401B0E46079041
:105A8000981903901298139F801B06905819F907D4
:105A90001C46029000290DD0079882B2039881B26B
:105AA0000998FFF799FE069882B2029881B2099888
:105AB000FFF792FEA01B0590601BB9070490002918
:105AC0000DDA079882B2059881B20998FFF784FE33
:105AD000069882B2049881B20998FFF77DFE129869
